:020000040800F2
:10000000980D0020F1010008B35A0008A95100081A
:10001000B15A0008DD15000835690008000000002D
:10002000000000000000000000000000015B00086C
:10003000DF15000800000000B55A0008035B000847
:100040000B0200080B0200080B0200080B0200085C
:100050000B0200080B0200080B0200080B0200084C
:100060000B0200080B0200080B0200080B0200083C
:100070000B0200080B0200080B0200080B0200082C
:100080000B0200080B0200085D1200080B020008BA
:100090000B0200080B0200080B0200080B0200080C
:1000A0000B0200080B0200080B0200080B020008FC
:1000B0000B0200080B0200080B0200080B020008EC
:1000C0000B0200080B0200080B0200080B020008DC
:1000D0000B020008F16800080569000811690008B2
:1000E000E11500080B0200080B0200080B020008D3
:1000F0000B0200080B0200080B0200080B020008AC
:100100000B0200080B0200080B0200080B0200089B
:100110000B0200080B0200080B0200080B0200088B
:100120000B0200080B0200080B0200080B0200087B
:100130000B0200080B0200080B0200080B0200086B
:100140000B0200080B0200080B0200080000000070
:10015000000000000000000000000000000000009F
:100160000000000000000000000000000B0200087A
:100170000B0200080B020008855B00080B02000858
:100180000B0200080B0200080B0200080B0200081B
:100190000B020008000000000B0200080B02000820
:1001A0000B0200080B0200080B0200080B020008FB
:1001B0000B0200080B0200080B0200080B020008EB
:1001C0000B0200080B0200080B0200080B020008DB
:1001D0000B0200080B020008DFF810D000F030FE20
:1001E00000480047F9730008AFF30080980D002025
:1001F0000648804706480047FEE7FEE7FEE7FEE7C1
:10020000FEE7FEE7FEE7FEE7FEE7FEE7695B0008C4
:10021000D90100082DE9F05F0546002092469B4673
:1002200088460646814640241BE02846414647460C
:10023000224600F0E6FB53465A46C01A914110D3BD
:1002400011461846224600F0CDFB2D1A67EB010837
:100250004F4622460120002100F0C4FB17EB0009A5
:100260004E41201EA4F10104DFDC484631462A46F7
:100270004346BDE8F09FD2B201E000F8012B491ED1
:10028000FBD270470022F6E710B513460A46044633
:100290001946FFF7F0FF204610BD30B50546002097
:1002A000034600E05B1C934205D2EC5CC85C201A5C
:1002B00001D1002CF6D130BD0FB400B58DB010A91E
:1002C00009900B9000914FF0FF300A9000200C90A5
:1002D00005480690054807906A4609A80F9900F05E
:1002E000B5FB0DB05DF814FB690A0008870A000829
:1002F0002DE9FF5F1D464FF0FF3BD5E901469146D2
:100300005F464FF00008A9697F1C01988847296A59
:10031000824688470028F6D1BAF1FF3F0CD024F47A
:10032000C064002E19DD600614D5BAF12B0F09D078
:10033000BAF12D0F0ED103E0584604B0BDE8F09F8E
:1003400044F48064A9697F1C01988847761E824620
:10035000002E02DDBAF1300F03D0B9F1000F26D024
:1003600032E0A969761E44F400747F1C0198884726
:100370008246002E05DDBAF1780F06D0BAF1580F8B
:1003800003D0B9F1000F10D01EE0B9F1000F02D078
:10039000B9F1100F18D1A969761E24F400747F1CDE
:1003A000019888478246102002E0082000E00A20D9
:1003B000814609E008FB0908A969761E44F4007427
:1003C0007F1C019888478246002E05DD494650462D
:1003D00000F027FB0028EDDAE96901988847A005BD
:1003E00002D46FF00100A8E7E00725D1600613D51D
:1003F000600502D5C8F1000000E0404629680A1DEA
:100400002A600968220501D5087015E0220701D588
:10041000088011E008600FE02868011D296000686D
:10042000210502D580F8008006E0210702D5A0F85A
:10043000008001E0C0F8008038467EE72DE9FF5FCC
:10044000D2E901A74FF00008916999461446DDF8FA
:1004500038B0464601988847054659EA0B0005D052
:1004600009E0A169761C019888470546216A28465B
:1004700088470028F5D1681C03D05FEACA7005D010
:1004800015E04FF0FF3004B0BDE8F09F2068011D7B
:100490002160D0F800800AE05FEACA7001D108F854
:1004A000015BA169761C7F1E019888470546002FD5
:1004B0001ADD681C18D0B9F1000F0DD0E81705EB54
:1004C000D060421120F01F0059F822102A1A012092
:1004D00090400142E0D107E0BBF1000FDCD1216A7E
:1004E000284688470028D7D0E16901988847BBF1A2
:1004F000000F07D1002E05DD5FEACA7002D100218E
:1005000088F80010A068B84203DDBBF1000F03D0EB
:1005100017B16FF00100B6E73046B4E72DE9FF4FA1
:10052000087883B09946FF2805D0491C2D2804D0AF
:100530000024002008E000200BE00124F9E700EB94
:10054000800003EB4000491C0B78FF2BF7D104B16E
:10055000404200230293147819461D462D2C01D0E9
:100560002B2C04D1521C2D2C13D000240294AA460B
:100570001478FF2C0FD00A25A3FB057801FB058119
:100580004FF0000C03FB0C11521CE3194AEB010164
:10059000EEE70124EAE7814453EA010002D019F5AD
:1005A000C87F06DA03980021C0E9001107B0BDE852
:1005B000F08F0025AE4E2F46DFF8B882184600F0C7
:1005C000E6FBCDE90001B9F1000002DAC9F100044F
:1005D00000E004460023A74A1AEB030B42EB045A3F
:1005E00012E0E00707D02A4633463846414600F07D
:1005F00045F9074688462A4633461046194600F014
:100600003DF905460E466410002CEAD1DDE90001F3
:10061000B9F1000F5A46534606DA00F049FB3A4654
:10062000434600F045FB05E000F028F93A46434612
:1006300000F024F9029A0AB181F00041039AC2E95C
:100640000001B3E72DE9FF4F1F468DB0D7E9014602
:100650004FF0FF382E2045464FF000090B90B96946
:100660006D1C0E988847396A824688470028F6D163
:10067000BAF1FF3F0AD024F4D064002E11DDBAF1A4
:100680002B0F08D0BAF12D0F0BD102E0404611B06C
:100690008DE744F48064B9696D1C0E9888478246E2
:1006A000761E6946600501D52D2000E02B208DF8CF
:1006B000000001F1010B0DF1200809E0B9696D1C82
:1006C0000E98884782460F9844F40074761E0560A1
:1006D000002E02DDBAF1300FF0D00B998A453ED1E1
:1006E00044F0800406E00F99681CA9F1010944F464
:1006F00000740860B9696D1C761E0E9888478246A2
:100700003028F0D02BE00B998A4505D1200603D480
:1007100044F08004761E18E0504606F015FA08B33F
:100720000DF11301761E44F400748B4508D2AAF132
:1007300030000BF8010B200607D5A9F1010003E0FA
:10074000200602D409F101008146A00502D50F99C7
:10075000681C0860B9696D1C0E9888478246002E97
:10076000D1DC53E0002E51DDBAF1650F02D0BAF1B1
:10077000450F4BD1A00549D5B9696D1C24F44074CF
:10078000761E0E9888478246002E0CDD2B2804D05A
:10079000BAF12D0F07D144F48074B9696D1C0E981D
:1007A00088478246761EE00501D52D2100E02B21E9
:1007B00008F8011BCDF82C8021E00DF12901761EEF
:1007C00044F4007488450CD2AAF1300010F0FF0008
:1007D00088F8000002D10B99884509D908F1010871
:1007E00006E0E00501D5244801E042F20F708146A1
:1007F000B9696D1C0E98884782460F980560002ED7
:1008000004DD504606F0A0F90028D6D1F9690E980B
:100810008847FF208BF8000088F800000020069031
:1008200007904B466A4608A906A8FFF777FEA00581
:1008300002D46FF001002AE714F0240F0AD0E00779
:1008400014D1DDE906123868031D3B600068C0E979
:1008500000120BE0DDE9060100F0D6FA0146E007E0
:1008600004D13868021D3A600068016028460EE72E
:10087000000014400000F03FF1D8FFFF2DE9FE4FCB
:1008800081EA030404F0004421F0004100944FF099
:10089000000B23F0004350EA01045ED052EA030447
:1008A0005BD0C3F30A54C1F30A552C44A4F2F334C9
:1008B0000194A0FB0254C1F3130141F48011C3F36E
:1008C000130343F4801301FB024400FB034E840A2C
:1008D000970A44EA815447EA8357A4FB07680295C4
:1008E0008D0A05FB07854FEA932C04FB0C54270562
:1008F000029D4FEA065847EA1637B5EB08056EEB3E
:10090000070C870E920E47EA811742EA8312A7FB73
:100910000201B6EB0B0164EB00042B0D43EA0C3330
:100920005E1844EB1C50DA465146E7FB0201C5F362
:1009300013044FEA0B3343EA14534FEA0432019C89
:1009400043EA0603A4F10C040294009CCDE900B430
:1009500000F0B9F803B0BDE8F08F00200146F9E7D8
:10096000C1F30A5210B5C1F3130140F2FF3341F451
:1009700080119A4201DA002010BD40F233439A42BE
:10098000A2F2334203DC524200F03BF810BD90402B
:1009900010BD00F0004230F000400AD0C10D01F55A
:1009A0006071C0F3160042EA0151C20840071143CA
:1009B000704700200146704730B50B4601460020C5
:1009C0002022012409E021FA02F59D4205D303FA11
:1009D00002F5491B04FA02F52844151EA2F1010292
:1009E000F1DC30BD202A04DB203A00FA02F10020BD
:1009F00070479140C2F1200320FA03F3194390405D
:100A00007047202A04DB203A21FA02F000217047C7
:100A100021FA02F3D040C2F1200291400843194666
:100A200070473A2800D2303820F02002412A01D302
:100A3000A2F13700884201D34FF0FF307047000029
:100A4000026811441378016018467047D160044968
:100A500051610449116200211161114600F01ABA76
:100A6000410A0008890E0008426842B1016811F885
:100A7000013B23B1521EC0E9001218467047012104
:100A8000C160881E704742685AB1C368016843B9A3
:100A900083688B4205D0491E521CC0E90012002019
:100AA00070474FF0FF30704710B5141E73F100040B
:100AB00008DA401C41F1000192185B411A4301D150
:100AC00020F0010010BD2DE9F04D92469B4611B17A
:100AD000B1FA81F202E0B0FA80F220329046FFF7DC
:100AE00081FF04460F4640EA0A0041EA0B015346E3
:100AF0005A46084313D0114653EA010019D0C8F1F1
:100B000040025046FFF77DFF05460E4650465946C7
:100B10004246FFF767FF084305D0012004E0204666
:100B20003946BDE8F08D0020054346EAE0762C43C7
:100B300037430A986305E40AA0EB08000022FD0A87
:100B400044EA47540A3002D500200146E9E701058E
:100B500010196941DDE9084500196941BDE8F04D0A
:100B6000A2E72DE9FE4F804681EA0300C00F0C4644
:100B7000009021F0004123F00045B8EB0200A941AC
:100B800005D24046214690461C460B46024623F0BD
:100B90000040104347D0270DC7F30A00C3F30A51A2
:100BA0000290401A019040286BDAC3F3130040F41E
:100BB000801B0098924620B10023D2EB030A63EB1E
:100BC0000B0B01985946C0F140025046FFF70AFF4F
:100BD00006460D4650465946019A00F043F910EB7F
:100BE00008006141002487EA115284EAE7731A433E
:100BF00040D0009A62B3019A012A4FEA075215DCED
:100C0000001B61EB02014FF0004202EA0752CDE9FE
:100C10000042001C41F5801132462B46FFF753FF7E
:100C200003B0BDE8F08F40462146F9E7001B61EBB9
:100C30000201001C41F5801300185B412018A2F549
:100C4000001747EB030140EAD570B6196D4111E07A
:100C50006D084FEA360645EAC0754FEA0752001B99
:100C600061EB0201001C41F5801149084FEA300098
:100C70000019514132462B4603B0BDE8F04FFFF753
:100C800013BF0098012240000023D0EB020263EB67
:100C9000E073009821464FEAE074B8EB000061EB86
:100CA0000401E9E783F000435BE781F0004158E786
:100CB0002DE9F04D81EA030404F0004B21F00045DA
:100CC00014464FF0000A23F0004150EA050220D0FC
:100CD00054EA01021DD0C5F30A570246C5F31303B7
:100CE000C1F31300C1F30A5640F4801543F4801396
:100CF000A7EB0608101BD64608F2FD3873EB05007B
:100D000002D308F1010801E092185B41B8F1000F2D
:100D100003DA00200146BDE8F08D00204FF4801179
:100D2000064684460EE0171B73EB050705D3121B1E
:100D300063EB050306434CEA010C49084FEA300017
:100D400092185B4150EA0107EDD152EA030012D03C
:100D500082EA040083EA0501084305D0101BAB4179
:100D600006D20122002306E000224FF0004302E0F9
:100D70006FF0010253101AEB06004CEB085110EB18
:100D80000A0041EB0B01BDE8F04DFFF78DBE0EB53B
:100D900040F2334202920022CDE900221346FFF7CF
:100DA00092FE03B000BDC1F30A52C1F3130140F239
:100DB000FF3341F480119A4202DA00200146704765
:100DC00040F233439A42A2F2334202DC5242FFF72E
:100DD00018BEFFF707BE000030B5041E71F1000415
:100DE00004DB4FF00044404264EB0101141E73F138
:100DF000000405DB1C464FF00043524263EB040342
:100E0000994208BF904230BD01F0004330B421F058
:100E1000004150EA010206D00A0DA2F56072C1F34A
:100E20001301002A02DC30BC00207047440F44EA62
:100E3000C104C100E01830BC00EBC25000F0C2B9E0
:100E4000064C074D06E0E06840F0010394E8070017
:100E500098471034AC42F6D3FFF7C2F95479000832
:100E600074790008202A06DBCB17203A41FA02F0F9
:100E700043EAE07306E041FA02F3D040C2F12002F7
:100E80009140084319467047C0B24FF4F05100F04A
:100E9000D1B900002DE9F34F8BB04FF0000801F1FC
:100EA0000C000C464FF0010B46460DF1080A01906C
:100EB0006269012101989047051E2DD0252D2CD067
:100EC000216A8847C0B16269012101989047216A6F
:100ED00088470028F7D1411E62690198904700E0D9
:100EE000761CA1690B988847216A88470028F7D1AA
:100EF000E1690B988847DBE7A1690B9888470746AB
:100F0000A84201D1761CD3E7E1690B9888477F1C82
:100F100002D1B8F1000F6FD047E1002762693D466A
:100F20003946019890472A2804D162690121019825
:100F300090470125DFF88892626901210198904766
:100F4000A0F130010A290AD24F45E5DC07EB870101
:100F500000EB4107303FDFD445F01005ECE7E90630
:100F600001D46FF000476C280AD04C2814D06828B0
:100F700015D06A280DD074281CD07A281AD01DE00C
:100F800062690121019890476C2802D045F0040560
:100F900014E045F002050DE045F020050AE0626925
:100FA000012101989047682802D045F0080505E026
:100FB00045F400656269012101989047C4E9015731
:100FC00065283DD019DC58287AD00CDC452837D06C
:100FD00004DC252826D0412831D131E046282FD005
:100FE00047282CD12CE05B2877D0612828D06328B3
:100FF0007CD0642823D15AE0D1E06F2848D008DCA7
:1010000066281DD067281BD0692821D06E2816D1EC
:1010100027E0702845D0732868D0752847D07828F5
:101020000DD14DE0A1690B988847054625283FF46E
:1010300069AFE1690B9888476D1C3FF46AAFB4E073
:1010400023466A466FF001000B99FFF7FBFA9FE019
:1010500045F040006060A80723464FF0000236D4F8
:101060003EE0E8077FF447AF2068011D216000687B
:10107000290501D506701BE7290701D5068017E76A
:10108000A90703D5F117C0E9006111E706600FE772
:1010900045F040006060A80723464FF0080216D4D0
:1010A0001EE040F60E0125EA0100606016E045F002
:1010B00040006060A80723464FF00A0207D40FE003
:1010C00045F040006060A80708D5234610226FF065
:1010D00001000B99AFF300805AE007E0234610228D
:1010E0006FF001000B99FFF703F951E04FF0000991
:1010F0004F464B46632802D05B2807D041E0207959
:10110000C00601D40120A06001273AE062690121F4
:10111000019890475E2805D14FF001096269494660
:1011200001989047216939B900210A46534643F88E
:101130002120491C0829FADBB0B3216969B9C1171C
:1011400000EBD16253110AEB830122F01F02821AD5
:1011500001200B68904003430B60626901210198F4
:1011600090475D28E8D1B9F1000F09D00020514621
:1011700051F82020D24341F82020401C0828F7DBFA
:1011800002AB224600976FF001000B99FFF756F96A
:1011900000280CDA401C08D1BBF1000F05D04FF03D
:1011A000FF300DB0BDE8F08FFFE74046F9E7E907F3
:1011B00001D108F1010806444FF0000B78E6000069
:1011C000CCCCCC0C0029A8BF7047401C490008BFFC
:1011D00020F00100704710B4B0FA80FC00FA0CF067
:1011E00050EA010404BF10BC704749B1CCF120049F
:1011F00021FA04F411FA0CF118BF0121214308432C
:10120000A3EB0C01CB1D4FEA00614FEA102042BF57
:10121000002010BC704700EBC35010440029A4BF4D
:1012200010BC7047401C490008BF20F0010010BCF2
:10123000704700007F2801D9002208E0064A02EB2F
:101240005002C007127800D1120902F00F020120EB
:1012500090400840704700001479000810B5044819
:1012600001F058F8BDE81040024801F053B8000002
:1012700060000020CC00002070B5044600222068E9
:101280008368C3F38003D0F808C0CCF3C00C53EAE2
:101290000C0370D0C36813F0007F1FD0637F012B55
:1012A0001CD1237F012B19D10121036813F0400FBA
:1012B00012D1324B9A4209D3E06D40F01000E06544
:1012C000206E40F001002066012070BD521CD0F855
:1012D00000C01CF0400FEDD040220260022910D067
:1012E00020688268C2F380025AB18268C2F3400269
:1012F0003AB9826822F03F0222F0004242F0100226
:101300008260012910D020688268C2F3C0025AB1FD
:101310008268C2F340023AB9826822F03F0222F0AA
:10132000004242F02002826002291ED003291AD016
:10133000042501F077FF06462068806828421AD00D
:1013400001F070FF801B052811D9206880682842B1
:101350000DD0E06D40F01000E065206E40F001001F
:101360002066012070BD0C25E3E70825E1E7206831
:1013700080682842E4D1002070BD0000000040A336
:1013800070B5044620688168C1F34001826802F0AC
:101390000102002A3CD000293AD1816801F00D01F8
:1013A000012909D0E06D40F01000E065206E40F0AA
:1013B00001002066012070BD816821F03F0121F00D
:1013C000004141F00201816021680320086001F0C2
:1013D00029FF05462068806810F0010F18D001F041
:1013E00021FF401B02280ED92068806810F0010FF1
:1013F00009D0E06D40F01000E065206E40F0010083
:101400002066012070BD2068806810F0010FE6D1D1
:10141000002070BD70B504462068816801F00101AC
:10142000002939D181686FF39E1149B1E06D40F018
:101430001000E065206E40F001002066012070BDC4
:10144000816821F03F0121F0004141F001018160FC
:1014500001F0E8FE05462068006810F0010F1BD17E
:101460002068816801F0010139B9816821F03F01EC
:1014700021F0004141F00101816001F0D3FE401BE9
:10148000022804D92068006810F0010F06D02068F7
:10149000006810F0010FE3D0002070BDE06D40F057
:1014A0001000E065206E40F001002066012070BD54
:1014B00000B589B020216846FEF7E4FE0A48009096
:1014C00006200190052002907F20039004200490C4
:1014D000002005906946054800F06AFC002801D00C
:1014E00000F08AF809B000BD00209036CC00002042
:1014F00000B589B020216846FEF7C4FE0A48009076
:1015000006200190052002907F2003900420049083
:10151000002005906946054800F04AFC002801D0EB
:1015200000F06AF809B000BD00005247CC0000206E
:1015300000B589B020216846FEF7A4FE0A48009055
:1015400006200190052002907F2003900420049043
:10155000002005906946054800F02AFC002801D0CB
:1015600000F04AF809B000BD0800900CCC00002043
:1015700000B589B020216846FEF784FE0A48009035
:1015800006200190052002907F2003900420049003
:10159000002005906946054800F00AFC002801D0AB
:1015A00000F02AF809B000BD1000C010CC000020E7
:1015B00010B50849084B00200A5C02F00F0412091C
:1015C00002EB820204EB42021A54401CC0B207280C
:1015D000F2D310BD260800200C000020FEE7704763
:1015E00010B54FF4806001F0FDFCBDE810404FF4F1
:1015F000006001F0F7BC000002A005F09DF972B692
:10160000FEE700004572726F725F48616E646C6540
:1016100072000000144A107F1449012801D00328E9
:101620000FD10B6823F400730B600B6843F4006365
:101630000B600B6823F400630B600B6843F40073CA
:101640000B60022801D003280BD1086840F48050B9
:101650000860086820F480500860086840F48060E2
:10166000086000201077704728000020002002400A
:101670000E490A6A12F4800F0ED010F0010F03D049
:101680004A6942F004024A6110F0020F09D0486929
:1016900040F40040486104E0486948F20402104305
:1016A0004861486940F4803048617047002002403A
:1016B000124A136A13F4800F07D011F0010F09D0FA
:1016C000516921F40061516108E0516921F4006120
:1016D000516103E0516941F4006151615169C0B247
:1016E00021F47E7141EAC0005061506940F002006F
:1016F0005061506940F480305061704700200240D2
:101700000549D1F814C04CF0010CC1F814C00260B6
:10171000BFF36F8F436070470020024040220A4BA6
:10172000D3F814C04CF4802CC3F814C0EFF3108C21
:1017300072B60B680360001D091D521ED2B2002A4A
:10174000F7D18CF3108870470020024070B5064630
:1017500001F068FD0546184C206910F4803F0AD05E
:1017600001F060FD401BB04201D9032070BD20692B
:1017700010F4803FF4D121694CF2FA30084098B15E
:101780000E494A6802434A6010F0704F04D0A169C4
:1017900000F070421143A16130F0704102D020F09E
:1017A00070402061012070BD206910F0010F01D050
:1017B00001202061002070BD002002402800002090
:1017C00010B5114CA1780A2907D0E078802804D2FE
:1017D0000E4A1154401CE0700DE00C4800F07CF9FA
:1017E00018B10221094800F073F80020E070802150
:1017F0000648FEF747FD04490122BDE81040891C58
:10180000034803F0F9BB000018000020BC080020CA
:10181000AC02002010B5054803F0C1F8BDE8104047
:1018200001220349014803F0E7BB0000AC0200209D
:101830001A00002010B5104C21780A2907D06078D2
:10184000802804D20D4A1154401C60700DE00B48F2
:1018500000F042F918B10121084800F039F80020E1
:10186000607080210548FEF70DFDBDE810400122A3
:101870000149034803F0C0BB180000203C080020C9
:101880001C020020DFED100A642280EE201AFDEE1B
:10189000C10A9FED0E1A10EE901A4A4300EE902AEC
:1018A0005328F8EEE00A70EE600A80EE810A00EE3E
:1018B000901AF8EEE00A30EE800A01D0572801D1E4
:1018C000B1EE400A704700000000C84200007042BC
:1018D0002DE9F34F89B08A4606224DA10998FEF7FB
:1018E000DCFC4D4C04F11906771E04F10C0504F1E3
:1018F000100B04F1140800282BD0062247A10998E8
:10190000FEF7CBFC04F13009002847D0062245A1A0
:101910000998FEF7C2FC00286DD0062243A1099861
:10192000FEF7BBFC002811D104F15400C21F011FB7
:10193000CDE904100838011FCDE90010CDE902926D
:101940000B1F0D3A3BA10998FEF7B6FC0BB0BDE8A2
:10195000F08F31482C30011F0A1FCDE90610059287
:10196000131F10380097CDE90303CDE901565B46FC
:10197000424638A10998FEF79FFC0128E6DB207E4D
:1019800094ED040AFFF77EFF84ED010A607E94ED7A
:10199000030AFFF777FF84ED000AD7E71E48009798
:1019A0003830011FCDE9041001A85B4680E86002D1
:1019B000424632A10998FEF77FFC012802DBBAF10A
:1019C000010F0FD0BAF1020FC0D16069FEF7E1FF3D
:1019D00041EC100B31A053EC102B0BB0BDE8F04FD5
:1019E00004F0AABF6069FEF7D4FF41EC100B2FA0F2
:1019F00053EC102BF1E70848CDE900563C30CDE917
:101A000002803B465A462DA10998FEF755FC9DE7FA
:101A100024475047474100003C09002024474E52CC
:101A20004D430000244750474C4C0000244750567B
:101A3000544700002447505654472C25662C2563F4
:101A40002C25662C25632C25662C25632C25662CDD
:101A5000256300002447504747412C25662C256606
:101A60002C25632C25662C25632C25642C25642CC1
:101A700025662C25662C25630000000024474E5265
:101A80004D432C25662C25662C25632C25662C259C
:101A9000632C25662C25662C256400007574635F15
:101AA00074696D6520322025660D0A007574635FC8
:101AB00074696D6520312025660D0A002447504762
:101AC0004C4C2C25662C25632C25662C25632C2557
:101AD000662C25630000000038B501780022242917
:101AE00020D1012101E05A40491C435C23B12A2B3B
:101AF00002D04B29F7DB15E04B2913DADBB22A2B96
:101B000010D1084408A144788578684604F024FF81
:101B10009DF80000A04205D19DF80100A84201D126
:101B2000012038BD002038BD2530325800000000AB
:101B300070B50F494FF6FF734FF400240A889A429C
:101B400001D1254601E01504AD094FF0006606EB12
:101B50005505854204D900BFA0F10060C00A70BDE0
:101B60009A4201D011048C09A0EB5400F4E7000064
:101B7000E075FF1FF8B504460E460025009594F861
:101B80005800012810D0012084F858002046FFF7A3
:101B9000F7FB0346180009D0E06D40F01000E06547
:101BA00084F858501846F8BD0220F8BDE06D20F4C6
:101BB000885040F00200E0652068816806F08042AD
:101BC00021F03F0121F04041114341F0004181608B
:101BD00020688168C90FA1B10D49009A521C00927A
:101BE000009A8A4209D3E06D20F0020040F0100014
:101BF000E06584F858500120F8BD8268D20F002AB1
:101C0000EBD1E06D20F0020040F00100E065C7E795
:101C100002DE04007047704770477047704700004D
:101C20002DE9F0079BB000250A6890F85820012A9A
:101C300011D0012280F858200024179418940268CB
:101C4000554E564FDFF858C1B2F1A04F08D0B242FE
:101C500009D1009708E01BB00220BDE8F0077047EB
:101C6000CDF800C000E00094009B5BB1009B9B6836
:101C7000C3F38003D2F80880C8F38008B8F1000FDE
:101C80000BD00BE0C16D41F02001C16580F85840D8
:101C90001BB00120BDE8F00770475BB1C16D41F09A
:101CA0002001C165012580F858401BB02846BDE8D9
:101CB000F0077047B2F1A04F01D0624501D1394A17
:101CC00000E0394ADFF8E4900B684FF0A048C3B356
:101CD000936890F838A023F4604343EA4A33D1F87C
:101CE00004A043EA0A0393600368B3F1A04F01D054
:101CF00063450AD1D8F8083003F00103DCF808C0C6
:101D00000CF0010C43EA0C030EE0B36803F001038E
:101D1000D7F808C00CF0010C43EA0C0CD9F80830D5
:101D200003F001034CEA0303002BBCD10B68896864
:101D30001943936823F01F0323F4706319439160E0
:101D4000B1E7FFE7916821F4604191600168B1F16A
:101D5000A04F01D0614509D1D8F8081001F0010168
:101D6000DCF8083003F0010319430BE0B16801F01F
:101D70000101BB6803F001030B43D9F8081001F01F
:101D80000101194300298ED1916821F01F0121F42E
:101D90007061916087E7000000040050000500506A
:101DA00000010050000300500007005000060050E2
:101DB0002DE9F8074FF0000C00240094FE4E90F837
:101DC0005820012A12D0012380F858300568AA68EB
:101DD000C2F3800272B1C16D41F02001C1659C4621
:101DE00080F85840BDE8F80760467047BDE8F8073E
:101DF000022070478A880F6802F4407805EB981536
:101E0000D5F8308002F01F024FF01F0909FA02F9DD
:101E1000C7F3846728EA090807FA02F248EA0202CF
:101E20002A6302689568C5F380059768C7F3C00701
:101E30002F434FF0070540F0FF80D1F80880B8F13C
:101E4000004F53D00F6807F0007902EBD952D2F857
:101E50001490C7F3045705FA07FA29EA0A0908FAA1
:101E600007F749EA070757610268576927F00047F3
:101E7000576102684F69D2F80C80C8F3C1084FEA75
:101E8000480807FA08F80F69042F4CD0D1F80090E1
:101E900002EB8702176EDFF824A309F0F84907EA7E
:101EA0000A0749EA080847EA080747F000471766A3
:101EB0000268D1F810808F6902EB8802D2F8608046
:101EC00028F0807848EA070717660F7F0268D1F884
:101ED0001080012F24D0002702EB8802D2F8608006
:101EE00028F0007848EA07071766A5E00F684FF06A
:101EF000000807F0007902EBD952D2F81490C7F32A
:101F0000045705FA07FA29EA0A0908FA07F749EA1D
:101F1000070757610268576947F000475761A8E70C
:101F20004FF00077D8E702F160073F6800277F0392
:101F30007F0B7CD002F160073F6807F0F84797FA03
:101F4000A7F7B7FA87F80F68C7F31209B9F1000FBE
:101F50006ED097FAA7F7B7FA87F7B84503D1176E8F
:101F600027F0004717660268121D02F160073F68FC
:101F700000277F037F0B71D002F160073F6807F0F5
:101F8000F84797FAA7F7B7FA87F80F68C7F3120967
:101F9000B9F1000F6AD097FAA7F7B7FA87F7B845F3
:101FA00003D1176E27F0004717660268083202F166
:101FB00060073F6800277F037F0B5AD002F160075C
:101FC0003F6807F0F84797FAA7F7B7FA87F80F685E
:101FD000C7F31209B9F1000F53D097FAA7F7B7FA70
:101FE00087F7B84503D1176E27F0004717660268D8
:101FF0000C3202F160073F6800277F037F0B43D05C
:1020000002F160073F6807F0F84797FAA7F7B7FAB9
:1020100087F80F68C7F31209B9F1000F3CD097FA9F
:10202000A7F7B7FA87F7B84506D1176E01E009E0C0
:1020300010E027F0004717660268976807F001076D
:102040006FB3D0E002F160073F6807F0F8474FEA4E
:10205000976878E7C7F384677FE7FFE702F16007D7
:102060003F6807F0F8474FEA97688EE7C7F3846741
:1020700095E702F160073F6807F0F8474FEA976875
:10208000A5E7C7F38467ACE702F160073F6807F094
:10209000F8474FEA9768BCE7C7F38467C3E7D1F80E
:1020A0000C800F68B04508D1D2F8B080C7F3120792
:1020B00048EA0707C2F8B07007E0D2F8B080C7F36B
:1020C000120728EA0707C2F8B070CA68B24272D194
:1020D0000A6807685603760B1AD092FAA2F6B6FA87
:1020E00086F6761C06F01F06092E32D8C2F31206B9
:1020F000002E10D092FAA2F6B6FA86F606F1010684
:1021000006F01F0603FA06F608D1C2F3846309E05D
:10211000C2F38466E5E7C2F38466EFE792FAA2F3BE
:10212000B3FA83F303F1010303F01F0346EA836369
:1021300002D1C2F3846203E092FAA2F2B2FA82F20E
:1021400002F1010202F01F0202EB420243EA0252D4
:1021500038E0C2F31206002E0DD092FAA2F6B6FABB
:1021600086F606F1010606F01F0603FA06F605D10B
:10217000C2F3846306E0C2F38466F2E792FAA2F344
:10218000B3FA83F303F1010303F01F0346EA836309
:1021900002D1C2F3846203E092FAA2F2B2FA82F2AE
:1021A00002F1010202F01F02A2F10A0202EB420256
:1021B00043EA025204E016E000007F4000F0FF0313
:1021C00042F000728E6802F0007307EBD3535F6930
:1021D000C2F3045205FA02F527EA050506FA02F2EF
:1021E00045EA02025A610B6840490B423FF4F8ADE0
:1021F00001683F4D3F4F404EB1F1A04F01D0B14279
:1022000001D12A4600E03A46926802F0E07203F1FA
:10221000705818F55F0803D0DFF8E080434502D11D
:1022200012F4000F20D003F1605818F52E0802D1E7
:1022300012F0807F43D003F1505818F5F8087FF46E
:10224000CFAD12F4800F7FF4CBADB1423FF4C8ADF7
:10225000B1F1A04F00D03D4642F48001AA6822F0BF
:10226000E0721143A960BBE5B1F1A04F05D0A1F127
:10227000A043B3F5C0637FF4B3ADB1F1A04F02D07A
:10228000B14200D03D4642F40001AA6822F0E0725B
:102290001143A9601A491B4A0968B1FBF2F1491CB4
:1022A00001EB410189000091009900293FF498ADAC
:1022B0000099491E009100990029F9D190E5B14299
:1022C00005D1A1F1A043B3F5A0633FF489ADB1F10D
:1022D000A04F02D0B14200D03D4642F08071AA68C2
:1022E00022F0E0721143A9607AE500000000088046
:1022F0000003005000070050000100501000C09083
:1023000048000020400D0300704770470068006CD3
:10231000704700002DE9F05F04464FF00008206888
:1023200005684668DFF8F8A2B0F1A04F01D050452B
:1023300001D1BC4800E0BC48806800F01F0715F0E0
:10234000020F10D016F0020F0DD0E06D10F0100F3C
:1023500003D1E06D40F40060E0652046FFF75AFCD1
:10236000216802200860DFF8C4B2DFF8C49215F0DB
:10237000040F02D016F0040F05D115F0080F4AD053
:1023800016F0080F47D0E06D10F0100F03D1E06D8C
:1023900040F40070E0652068C16811F4406F06D019
:1023A000002191B3504504D14FF0A04106E0012136
:1023B000F7E7584501D1494600E00146814209D07E
:1023C00047B1052F06D0092F04D0504504D14FF056
:1023D000A04106E0C16805E0584501D1494600E04A
:1023E0000146C96811F4005F0FD1016811F0080FB0
:1023F0000BD08168C1F38001A1B1E06D40F0100005
:10240000E065206E40F0010020662046FFF77CFF6B
:1024100021680C20086015F0200F14D016F0200F52
:1024200017D110E0416821F00C014160E06D20F40B
:102430008070E065E06D10F4805FE6D1E06D40F003
:102440000100E065E1E715F0400F57D016F0400FAE
:1024500054D0E06D10F0100F03D1E06D40F4005047
:10246000E0652068C16C11F4C07F0AD00023C16808
:1024700011F4406F07D00022504506D14FF0A04123
:1024800008E00123F3E70122F6E7584501D1494668
:1024900000E00146814209D047B1062F06D0072F40
:1024A00004D0504504D14FF0A04904E0C16804E0D5
:1024B000584500D08146D9F80C10CBB111F0007FFF
:1024C00003D0AAB111F4005F12D1026812F0400FDC
:1024D0000ED011F4001F0BD18168C1F3C001E1B32C
:1024E000E06D40F01000E065206E40F001002066D5
:1024F0002046FFF790FB21686020086015F0800FF0
:102500000CD016F0800F09D0E06D40F48030E0650B
:10251000204600F0BBF921688020086015F4807F18
:102520000DD016F4807F0AD0E06D40F40030E065F5
:102530002046FFF772FB21684FF48070086015F4A5
:10254000007F0FD016F4007F0CD0E06D40F48020A7
:10255000E0652046FFF762FB00E014E021684FF4DD
:102560000070086015F0100F41D016F0100F3ED02B
:10257000E06BC8B11FB32068B0F1A04F01D0504547
:1025800015D1284814E0416821F060014160E06DF8
:1025900020F48050E065E06D10F4807FA8D1E06DFC
:1025A00040F00100E065A3E74FF001080EE01E488F
:1025B000806800F4604048B14FF0010806E02068F0
:1025C000C06810F0010F01D04FF00108B8F1010F01
:1025D0000AD1E06D40F48060E065206E40F00200BA
:1025E00020662046FFF791FE21681020086015F450
:1025F000806F13D016F4806F10D0E06D40F48040EF
:10260000E065206E40F00800206621684FF480608D
:1026100008602046BDE8F05FFFF7FEBABDE8F09F16
:10262000000100500003005000070050000500505A
:1026300000040050F8B50446002500260096002C42
:1026400002D0E06D10B107E00120F8BD204600F097
:102650001FF9266684F8586020688168C1F34071CC
:1026600029B1816821F03F0121F02041816020687B
:102670008168C1F30071B9B9816821F03F0121F08F
:10268000004141F080518160774878490068B0FB93
:10269000F1F0401C40000090009828B10098401EC6
:1026A000009000980028F9D120688168C1F300717A
:1026B00041B9E16D41F01001E165216E41F0010188
:1026C000216601258168C1F38001E26D12F0100FCF
:1026D00000D131B1E06D40F01000E06501252846E1
:1026E000F8BDE16D21F4807141F00201E16581687E
:1026F00001F0010161BB5E4BB0F1A04F01D09842E7
:1027000009D14FF0A041896801F001019A6802F0F7
:10271000010211430DE05749896801F00102564951
:10272000896801F001010A435449896801F00101F7
:10273000114369B9B0F1A04F01D0984201D150487E
:1027400000E050486168826822F47C121143816085
:10275000E168E06B627F0843A16841EA42310843C7
:1027600094F8241040EA0140012903D1218D491E2B
:1027700040EA4140E16A21B101F47871226B0843DB
:1027800010432168CA68404B1A401043C860206853
:102790000169626B21F04061114301612068816829
:1027A000C1F380018268C2F3C002114332D1217F9C
:1027B00094F83820890341EA4201C26822F00202FB
:1027C00022F480421143C160206970B12068016920
:1027D00041F4803101612068D0F8C01022696FF3A4
:1027E0000D011143C0F8C0100BE02068016921F40D
:1027F000803101612068D0F8C0106FF30D01C0F87E
:10280000C01094F84000012813D02068016921F01D
:1028100001010161606901281CD02068016B21F071
:102820000F010163E06D20F0020040F00100E0655F
:1028300055E7A16C606C226D0843E16C114340EADE
:102840000102206801696FF38A01114341F001011F
:102850000161DFE72068016B226A21F00F01521E3F
:1028600011430163DEE7000048000020400D030033
:102870000001005000040050000500500006005008
:1028800000030050000700500740F0FF70470000B1
:102890002DE9F0439BB00446142115A8FDF7F2FC86
:1028A00054216846FDF7EEFC4FF4004120680025F6
:1028B0008A03384F0226384C4FF003084FF09049F6
:1028C000B0F1A04F10D0354B98425FD168461192BD
:1028D000009100F09DFF08B1FEF78EFE3868401CA5
:1028E0003860012823D02AE068461192009100F058
:1028F0008FFF08B1FEF780FE3868401C3860012861
:1029000007D1E06C40F40050E064E06C00F400504B
:102910001A90E06C40F00100E064E06C159600F065
:102920000100CDE916851A9015A9484624E0E06C0F
:1029300040F40050E064E06C00F400501A90E06C49
:1029400040F00400E064E06C00F004001A90E06CD9
:1029500040F00100E064E06C159600F00100CDE964
:1029600016851A90444615A90D4800F047FB15A995
:10297000F02081E83100484600F040FB002211467B
:10298000122000F089FE122000F078FE1BB0BDE896
:10299000F0830000140000200010024000010050ED
:1029A000000800482DE9F04704460F4620685349C7
:1029B000534BDFF85081B0F1A04F01D0404501D119
:1029C0000A4600E01A46926802F01F06A269082A29
:1029D00015D0B6B1052E14D0092E12D0B0F1A04FEB
:1029E00002D0404500D01946886800F46040A8B184
:1029F000E06D40F02000E0650120BDE8F08708258B
:102A00000DE0C06810F0010F06D0E06D40F020002E
:102A1000E0650120BDE8F087042500E0042500F012
:102A200001FC81462068006828421BD1B7F1FF3FB6
:102A300014D000F0F7FBA0EB0900B84200D86FB942
:102A400020680068284209D1E06D40F00400E0658C
:102A5000002084F858000320BDE8F0872068006853
:102A60002842E3D0E06D40F40070E0652068C16862
:102A700011F4406F04D00021A1B1617F11B111E0C8
:102A80000121F9E7016811F0080F0BD0E16D21F485
:102A90008071E165E16D11F4805F03D1E16D41F07A
:102AA0000101E165184B1949404501D11A0504E0BF
:102AB000984201D10A4600E00246824209D046B15E
:102AC000052E06D0092E04D0404504D14FF0A04178
:102AD00004E0C16803E0984200D00146C968082DAF
:102AE00003D011F4804F03D004E00821016001E01D
:102AF0000C2101600020BDE8F087000000030050B9
:102B00000007005000010050000500500004005074
:102B10002DE9F0410446474E2068B0F1A04F01D0A6
:102B2000B04201D1444900E04449896801F01F05E1
:102B30008068C0F3800018B102221046BDE8F08121
:102B400094F8580001280BD0012084F85800204642
:102B5000FEF760FC024600232AB184F85830ECE707
:102B60000220BDE8F081E06D20F0010020F46060FB
:102B700040F48070E0652068DFF8C4C0314FB04297
:102B800002D14FF0A04104E0604501D1394600E098
:102B90000146814200D01DB9E16D21F48011E1654B
:102BA000E16D11F4805F04D0216E21F006012166F1
:102BB00000E023661C21016084F858302068B04290
:102BC00002D14FF0A04104E0604501D1394600E058
:102BD000014681420DD065B1052D0AD0092D08D0DE
:102BE000E16D41F48011E165B04215D14FF0A04094
:102BF00015E0C16811F0007F05D0E16D21F40051AE
:102C000041F48051E165816821F03F0121F00041EC
:102C100041F00401816090E7604500D13846C0680A
:102C200010F0007F89D0E06D20F4005040F4805017
:102C3000E06582E7000100500003005000070050EB
:102C4000000500500004005010B5044694F85800E8
:102C5000012808D0012084F8580003212046FEF7FF
:102C60000BFB10B10BE0022010BD2046FEF788FBE5
:102C700028B9E16D21F4885141F00101E16500219D
:102C800084F8581010BD002290F825100123022965
:102C900003D00421C163012230E00168D1F800C0F3
:102CA0002CF00E0CC1F800C0816CD1F800C02CF4DF
:102CB000807CC1F800C00168D1F800C02CF0010C84
:102CC000C1F800C090F84410D0F840C001F01F01D6
:102CD00003FA01F1CCF80410D0F84CC0016DCCF827
:102CE0000410416D51B1D1F800C02CF4807CC1F8C2
:102CF00000C0D0F858C0C16DCCF8041080F8253061
:102D0000002180F824101046704710B5002490F878
:102D1000251000230122022907D00421C16380F875
:102D2000252080F82430012437E00168D1F800C064
:102D30002CF00E0CC1F800C00168D1F800C02CF0D6
:102D4000010CC1F800C0816CD1F800C02CF4807C6B
:102D5000C1F800C090F84410D0F840C001F01F0145
:102D600002FA01F1CCF80410D0F84CC0016DCCF897
:102D70000410416D51B1D1F800C02CF4807CC1F831
:102D800000C0D0F858C0C16DCCF8041080F82520E0
:102D900080F82430816B01B18847204610BDC06B9C
:102DA0007047000070B5044600F03CFA0546B4F1E7
:102DB000FF3F02D004484068044400F033FA401B4F
:102DC000A042FAD370BD00001C0000202DE9F0479E
:102DD00004460F46DFF8E88098F8000001280DD07F
:102DE000012588F800504FF47A70FEF7AFFC824658
:102DF0004FF00009BAF1000F03D05CE00220BDE8FB
:102E0000F087C8F804902F4E306810F4007F0ED081
:102E1000306810F4806F07D0306820F48060306034
:102E2000032088F81C0010E088F81C500DE0306882
:102E300010F4806F07D0306820F48060306002208A
:102E400088F81C0001E088F81C90206801281BD03D
:102E50004FF0FF303860A568E0682844A84228D9C0
:102E600028466168FEF724FC4FF47A70FEF76EFC8A
:102E70008246706920F4FD7020F4007070615FEA92
:102E80000A0010D03D6014E06068FEF7F1FB4FF4DB
:102E90007A70FEF75BFC8246706920F0040020F433
:102EA0000040706105E06D1CE168A0680844A8421C
:102EB000D6D8FEF7AFFB88F800905046BDE8F08703
:102EC0002800002000200240012005494A6942F004
:102ED00000424A61496911F0004F00D0002070475C
:102EE000002002402DE9F04707468A4614461D4659
:102EF0000026DFF86C8098F80000012809D0012036
:102F000088F800004FF47A70FEF720FCB14618B143
:102F100021E00220BDE8F087C8F8049027B1012F16
:102F200009D0022F07D00DE022462B465046FEF76F
:102F3000E7FB012606E021465046FEF7EFFB022F95
:102F400000D17E044FF47A70FEF700FC1EB10549F3
:102F50004A69B2434A6188F80090BDE8F0870000F2
:102F60002800002000200240002007494A6912F092
:102F7000004F08D0054A8A60054A8A60496911F005
:102F8000004F00D001207047002002402301674518
:102F9000AB89EFCD10B50C4BB0F5006F0CD0B0F590
:102FA000806F10D101220421184600F035F907A0E6
:102FB000BDE8104003F0C0BC01220421184600F017
:102FC0002BF905A0F4E710BD000800484750533224
:102FD0005050530D0A000000475053315050530DCC
:102FE0000A00000010B504490A68024202D00860D5
:102FF000FFF7D0FF10BD0000140401402DE9F84F89
:1030000000220B68002B7CD0DFF800A2DFF8F891DB
:103010004FF0010E03274FF00F080AF1040B0B6865
:103020000EFA02F42340002B6CD091F804C00CF08F
:10303000030CBCF1010F02D0BCF1020F18D185685E
:103040004FEA420C07FA0CF6B543CE6806FA0CFCC0
:103050004CEA050CC0F808C0D0F804C02CEA040CF7
:103060000C79C4F30014944044EA0C0CC0F804C07A
:10307000D1F804C037EA0C0C0CD0C4684FEA420CFB
:1030800007FA0CF5AC438D6805FA0CFC4CEA040C0D
:10309000C0F80CC091F804C00CF0030CBCF1020F96
:1030A00012D14FEAD20C00EB8C04256A4FEA427C25
:1030B0004FEADC6C08FA0CF6B5430E6906FA0CFC14
:1030C0004CEA050CC4F820C004684FEA420C07FA29
:1030D0000CF5AC430D7905F0030505FA0CFC4CEA40
:1030E000040CC0F800C0D1F804C01CF4403F72D0FA
:1030F000D9F860C04CF0010CC9F860C0D9F860C0C4
:1031000001E06DE067E00CF0010CCDF800C022F0AA
:10311000030C0CF1804505F58035D5F808C09407FF
:10312000240F08FA04F62CEA0606B0F1904F5CD0A2
:10313000A0F1904CBCF5806C54D0A0F1904CBCF543
:10314000006C55D0A0F1904CBCF5406C53D0A0F170
:10315000904CBCF5805C51D0A0F1904CBCF5A05CCB
:103160004FD04FF0060C0CFA04FC4CEA060CC5F8E4
:1031700008C0DAF800C02CEA030C4C6814F4801F75
:1031800001D04CEA030CCAF800C0DBF800C02CEAFE
:10319000030C4C6814F4001F01D04CEA030CCBF86C
:1031A00000C01B4CD4F800C02CEA030C4D6815F489
:1031B000003F01D04CEA030CC4F800C0154CD4F811
:1031C00000C02CEA030C4D6815F4803F01D04CEA96
:1031D000030CC4F800C0521C0B68D3407FF41FAF2F
:1031E000BDE8F88F4FF0010CBDE74FF0000CBAE7D7
:1031F0004FF0020CB7E74FF0030CB4E74FF0040CAC
:10320000B1E74FF0050CAEE70010024008040140A2
:103210000404014000040140002A01D0816170478C
:103220008162704701488068704700001C000020E0
:1032300090F84120202A01D00220704790F84020C9
:10324000012A20D0012280F84020242280F8412049
:103250000268136823F0010313600268136823F403
:1032600080531360026813681943116001680A688B
:1032700042F001020A60202180F84110002180F80C
:103280004010002070470220704790F84120202A0B
:1032900001D00220704790F84020012A1ED0012260
:1032A00080F84020242280F841200268136823F02F
:1032B000010313600268136823F4706343EA012179
:1032C000116001680A6842F001020A60202180F85A
:1032D0004110002180F84010002070470220704704
:1032E00070B50446002C04D094F84100002510B1BC
:1032F00006E0012070BD84F84050204600F028F917
:10330000242084F841002068016821F00101016057
:103310006068216820F0706008612068816821F48D
:1033200000418160E068012808D0A068216840F46D
:1033300004408860E068022806D009E0A06821689F
:1033400040F400408860F5E721684FF40060486071
:103350002068416841F4004141F0007141602068FB
:10336000C16821F40041C160616920690843A16915
:1033700040EA01202168C860216AE06908432168A9
:1033800008602068016841F0010101606564202047
:1033900084F84100256384F84250002070BD00008D
:1033A0002DE9FF4F83B00446DDF84490DDF84080FE
:1033B000129F92469B4694F84100202803D007B004
:1033C0000220BDE8F08FB8F1000F18D0B9F1000F5E
:1033D00015D094F84000012818D0012084F840004E
:1033E000FFF720FF054601221923D103204600954F
:1033F00001F0D8FF70B107B00120BDE8F08F4FF4A5
:103400000070606407B00120BDE8F08F07B00220B3
:10341000BDE8F08F222084F84100402084F842006B
:1034200000266664C4F82480A4F82A9066635B468C
:103430005246009701952046049901F059FF28B1A2
:1034400084F8406007B00120BDE8F08F618D3E48F0
:103450004FF0FF08FF290AD94246A4F828800090BF
:103460004FF080732046049901F080FF0AE0618DDF
:103470002185009094F828204FF00073204604998D
:1034800001F074FF3B46002204212046009501F024
:1034900089FF18B107B00120BDE8F08F2068406AAD
:1034A000616A0870606A401C6062208D401E80B2B4
:1034B0002085618D491E6185618D29B320BB3B4606
:1034C000002280212046009501F06CFF18B107B062
:1034D0000120BDE8F08F608DFF280AD94246A4F88C
:1034E00028804FF0807300962046049901F03EFF3B
:1034F0000AE0608D2085009694F828204FF0007334
:103500002046049901F032FF608D0028BAD12A4686
:103510003946204601F07CFF18B107B00120BDE814
:10352000F08F20682021C16120684268074B1A4053
:10353000426084F8411084F8426084F8406007B02B
:103540000020BDE8F08F00000024008000E800FEAD
:1035500030B59BB00446142115A8FCF793FE542106
:103560006846FCF78FFE18492068884229D18020E0
:10357000002500900895684600F04AF908B1FEF76A
:103580003BF8124CE06C40F00100E064E06C15A9DF
:1035900000F001001A904FF4407015901220169020
:1035A0000120CDE91705042019904FF09040FFF756
:1035B00025FDA06D40F48000A065A06D00F48000A2
:1035C0001A901BB030BD00000058004000100240AF
:1035D0000248816842681144816070471C000020E5
:1035E00010B50024032000F08BF8002000F008F84C
:1035F00008B1012401E000F029F8204610BD0000C8
:1036000070B5054600240F4E7068002817D04FF49F
:103610007A71B1FBF0F00C490968B1FBF0F000F0F1
:1036200099FE08B101240BE0102D06D20022294694
:10363000501E00F031F8356002E0012400E0012462
:10364000204670BD1C000020480000200A4882B0BF
:10365000016E41F001010166016E01F0010100916E
:10366000816D41F080518165806D00F08050009047
:1036700002B000F0C5B800000010024000280ADBCC
:1036800000F01F01012202FA01F14009800000F15F
:10369000E020C0F80011704710B4184B1B68C3F34A
:1036A0000223C3F1070CBCF1040F01D94FF0040C45
:1036B0001C1D072C01D2002300E0DB1E012404FAAC
:1036C0000CFCACF1010C0CEA0101994004FA03F383
:1036D0005B1E1A401143002806DB00F1E0200901BF
:1036E00080F8001410BC704700F00F0000F1E020DB
:1036F000090180F8141D10BC704700000CED00E0BB
:1037000000F00700064A11684FF6FF03194041EA2E
:10371000002040F0FD7040F08060106070470000B5
:103720000CED00E033493222334B09684A433349F8
:1037300000280AD0B0F5007F31D0086820F4C060BE
:1037400040F48060086000207047086800F4C060A2
:10375000B0F5806F06D0D1F8800020F48070C1F8F9
:103760008000F0E7D1F8800020F48070C1F880007C
:10377000086820F4C06040F400700860B2FBF3F009
:10378000401C00E0401E4A6912F4806F01D00028FE
:10379000F8D1486910F4806FD5D0032070470868CD
:1037A00000F4C060B0F5806F06D0D1F8800040F41E
:1037B0008070C1F88000C6E7D1F8800040F48070C6
:1037C000C1F88000086820F4C06040F40070086010
:1037D000B2FBF3F0401C00E0401E4A6912F4806F17
:1037E00001D00028F8D1486910F4806FABD00320D5
:1037F000704700004800002040420F000070004069
:103800000248816841F48041816070470070004047
:103810002DE9F84F0446002600272068D14D10F40A
:10382000002F77D04FF00008A86D10F0805F09D10D
:10383000A86D40F08050A865A86D00F08050009001
:103840004FF00108DFF820A3DAF8000040F48070A0
:10385000CAF80000FFF7E6FC8146DAF8000010F431
:10386000807F0CD1FFF7DEFCA0EB0900022801D914
:10387000032604E0DAF8000010F4807FF2D026B1CD
:103880003746B8F1010F41D044E0D5F8900000F47C
:103890004070A0B1216D814211D0D5F8900020F484
:1038A0004070D5F8901041F48031C5F89010D5F8EB
:1038B000901021F48031C5F89010C5F8900010F0F8
:1038C000010F16D0FFF7AEFC8146D5F8900010F03E
:1038D000020F0ED141F2883AFFF7A4FCA0EB0900D9
:1038E000504501D9032604E0D5F8900010F0020FEE
:1038F000F2D00EB13746C4E7D5F89000216D20F420
:1039000040700843C5F89000BBE703E0A86D20F0C5
:103910008050A865207810F0010F07D0D5F88800F6
:10392000616820F003000843C5F88800207810F093
:10393000020F07D0D5F88800A16820F00C000843DA
:10394000C5F88800207810F0040F07D0D5F888005B
:10395000E16820F030000843C5F88800207810F0B6
:10396000080F07D0D5F88800216920F0C00008436F
:10397000C5F88800207810F0100F07D0D5F888001F
:10398000616920F440700843C5F88800207810F081
:10399000200F07D0D5F88800A16920F440600843C3
:1039A000C5F88800207810F0400F07D0D5F88800BF
:1039B000E16920F440500843C5F88800207810F0F1
:1039C000800F07D0D5F88800216A20F440400843D2
:1039D000C5F88800208810F4807F07D0D5F88800CB
:1039E000616A20F440300843C5F88800206810F46C
:1039F000003F07D0D5F89C00A16A20F003000843DF
:103A0000C5F89C00208810F4007F07D0D5F8880006
:103A1000E16A20F440200843C5F88800208810F4AB
:103A2000806F0FD0D5F88800216B20F44010084338
:103A3000C5F88800206BB0F5801F03D1E86840F41A
:103A40008010E860208810F4006F0FD0D5F888004F
:103A5000616B20F440000843C5F88800606BB0F546
:103A6000800F03D1E86840F48010E860208810F4EB
:103A7000805F0FD0D5F88800A16B20F0407008431C
:103A8000C5F88800A06BB0F1807F03D1E86840F4EE
:103A90008010E860208810F4005F0FD0D5F888000F
:103AA000E16B20F040600843C5F88800E06BB0F19E
:103AB000006F03D1E86840F48010E860208810F4BB
:103AC000804F0FD0D5F88800216C20F0406008436B
:103AD000C5F88800206CB0F1006F03D1E86840F4AD
:103AE0008010E860208810F4004F0FD0D5F88800CF
:103AF000616C20F040500843C5F88800606CB0F15C
:103B0000805F03D1E86840F48030E860206810F4FA
:103B1000803F0FD0D5F88800A16C20F040400843CA
:103B2000C5F88800A06CB0F1804F03D1E86840F47C
:103B30008030E860206810F4802F0FD0D5F89C000A
:103B4000E16C20F440100843C5F89C00E06CB0F52F
:103B5000001F03D1E86840F48010E8603846BDE8F3
:103B6000F88F000000100240007000402DE9F0477F
:103B700004460D460027002C17D0DFF8DC91D9F859
:103B8000000000F00F00A84212D2D9F8000020F087
:103B90000F002843C9F80000D9F8000000F00F001A
:103BA000A84205D00120BDE8F0870120BDE8F087DC
:103BB00020786A4E10F0010F41F2883A5ED06068BA
:103BC000DFF89C81032806D0022822D0306810F448
:103BD000806F49D021E0306810F0007F0ED001F0F6
:103BE0006BFF404524D9B06810F0F00F09D0207861
:103BF00010F0020F1CD0A06818B119E00120BDE838
:103C0000F087B06820F0F00040F08000B0608027BE
:103C10000EE0306810F4003F23D000F0D3F84045A8
:103C200006D9B06820F0F00040F08000B060802736
:103C3000B068616820F003000843B060FFF7F2FA53
:103C40008046B068616800F00C00B0EB810F15D0C1
:103C5000FFF7E8FAA0EB0800504508D90320BDE8BB
:103C6000F0870120BDE8F0870120BDE8F087B0684B
:103C7000616800F00C00B0EB810FE9D1206810F012
:103C8000020F17D010F0040F03D0B06840F4E060CA
:103C9000B060207810F0080F05D0B06820F46050B4
:103CA00040F4E060B060B068A16820F0F000084324
:103CB000B06005E0802F03D1B06820F0F000B06064
:103CC000D9F8000000F00F00A8421DD9D9F8000073
:103CD00020F00F002843C9F80000FFF7A3FA0746B9
:103CE000D9F8000000F00F00A8420DD0FFF79AFAB3
:103CF000C01B504502D90320BDE8F087D9F8000069
:103D000000F00F00A842F1D1207810F0040F05D088
:103D1000B068E16820F4E0600843B060207810F0FB
:103D2000080F06D0B068216920F4605040EAC10055
:103D3000B06000F047F8B1680A4AC1F30311515C62
:103D400001F01F01C8400849086008480068BDE844
:103D5000F047FFF755BC0000002002400010024071
:103D600000B4C404FC780008480000201C000020B7
:103D700001480068704700004800002000B5FFF7C8
:103D8000F7FF05498968054AC1F30221515C01F03A
:103D90001F01C84000BD0000001002400C7900085F
:103DA00000B5FFF7E5FF05498968054AC1F3C2215F
:103DB000515C01F01F01C84000BD0000001002402E
:103DC0000C790008184A906800F00C011748042983
:103DD0000AD0916801F00C01082905D091680C23E4
:103DE00033EA010101D000207047D16801F00303DC
:103DF000D168C1F30311491C032B0DD0B0FBF1F0C6
:103E0000D168C1F306214843D168C1F34161491C1F
:103E10004900B0FBF1F07047B0FBF1F0D168C1F39D
:103E200006214843F0E70000001002400024F4009F
:103E30002DE9F8430446002C0ED02078FD4F10F0F9
:103E4000010F60D0B8683D4600F00C00E96801F051
:103E500003010C2803D004E00120BDE8F883032906
:103E60001AD0082818D06068B0F5803F1DD0B0F592
:103E7000A02F1FD0286820F480302860286820F404
:103E800080202860606858B3FFF7CCF906462868A0
:103E900010F4003F17D036E0286810F4003F32D00D
:103EA000606880BB0120BDE8F883286840F480305A
:103EB0002860E7E7286840F480202860286840F4FC
:103EC00080302860DEE7FFF7ADF9801B642802D957
:103ED0000320BDE8F883286810F4003FF3D012E017
:103EE000FFF7A0F90646286810F4003F0BD0FFF753
:103EF00099F9801B642802D90320BDE8F88328685B
:103F000010F4003FF3D1207810F0020F5ED0B868B3
:103F10003D4600F00C00E96801F003010C2801D1D6
:103F200002290FD004280DD0E068B8B3286840F407
:103F300080702860FFF776F90646286810F4806FD5
:103F400018D023E0286810F4806F01D0E06870B1C9
:103F50006868217C20F0FE4040EA01606860B64855
:103F60000068FFF74DFB88B30120BDE8F88301200E
:103F7000BDE8F883FFF756F9801B022802D9032019
:103F8000BDE8F883286810F4806FF3D06868217C5E
:103F900020F0FE4040EA0160686017E0FFE7286813
:103FA00020F480702860FFF73DF90646286810F479
:103FB000806F0BD0FFF736F9801B022802D903204F
:103FC000BDE8F883286810F4806FF3D1207810F0F2
:103FD000080F3AD06069E0B1D7F894003D4640F050
:103FE0000100C7F89400FFF71DF90646D5F89400C4
:103FF00010F0020F29D1FFF715F9801B022802D912
:104000000320BDE8F883D5F8940010F0020FF2D039
:104010001BE0D7F894003D4620F00100C7F894005B
:10402000FFF700F90646D5F8940010F0020F0CD007
:10403000FFF7F8F8801B022802D90320BDE8F883B7
:10404000D5F8940010F0020FF2D1207810F0040F90
:104050007BD04FF00008B86D10F0805F09D1B86DCB
:1040600040F08050B865B86D00F0805000904FF07F
:104070000108724D286810F4807F16D1286840F43A
:1040800080702860FFF7CEF80646286810F4807F1D
:104090000BD1FFF7C7F8801B022802D90320BDE827
:1040A000F883286810F4807FF3D0A06801281AD024
:1040B00005281FD0D7F8900020F00100C7F8900025
:1040C000D7F8900020F00400C7F89000A06841F2F3
:1040D000883650B3FFF7A6F80546D7F8900010F0E1
:1040E000020F14D037E0D7F8900040F00100C7F875
:1040F0009000EBE7D7F8900040F00400C7F890007C
:10410000D7F8900040F00100C7F89000DEE7FFF715
:1041100089F8401BB04202D90320BDE8F883D7F8E4
:10412000900010F0020FF2D015E0FFF77BF8054683
:10413000D7F8900010F0020F0DD0FFF773F8401B76
:10414000B04203D90320BDE8F8830BE0D7F8900014
:1041500010F0020FF1D1B8F1010F03D1B86D20F0CA
:104160008050B865207810F0200F3AD0A069E0B1F7
:10417000D7F898003D4640F00100C7F89800FFF7D7
:1041800051F80646D5F8980010F0020F29D1FFF734
:1041900049F8801B022802D90320BDE8F883D5F82E
:1041A000980010F0020FF2D01BE0D7F898003D46BF
:1041B00020F00100C7F89800FFF734F80646D5F85C
:1041C000980010F0020F0CD0FFF72CF8801B02288B
:1041D00002D90320BDE8F883D5F8980010F0020F4B
:1041E000F2D1E06960B3B9683D460C2232EA0101C0
:1041F0004FF0FF3878D0022823D0286820F0807054
:104200002860E86820F00300E860E86820F488107F
:1042100020F08070E860FFF705F80446286810F089
:10422000007F0DD0FEF7FEFF001B022857D90320A8
:10423000BDE8F883001002401C0000200070004020
:1042400083E0286820F080702860FEF7EBFF0646C8
:10425000286810F0007F0AD0FEF7E4FF801B0228D8
:1042600001D90320E4E7286810F0007FF4D1616AE7
:10427000206A491E40EA0110A16A228E090208EB59
:10428000520241EA4251084394F8341008EB5101BC
:1042900040EA416094F82C1040EAC160E9682C4A79
:1042A00011400843E860286840F080702860E868A2
:1042B00040F08070E860FEF7B5FF0446286810F013
:1042C000007F42D1FEF7AEFF001B022801D9032078
:1042D000AEE7286810F0007FF4D036E004E02868EC
:1042E00010F0007F9ED130E001282CD0E868226ACF
:1042F00000F00301914224D1626A00F0F001521EE5
:10430000B1EB021F1DD1A26A00F4FE41B1EB022FF6
:1043100017D194F82C1000F07842B2EBC16F10D195
:10432000228E00F4C00108EB5202B1EB425F08D1CB
:1043300094F8341000F0C06008EB5101B0EB416F0D
:1043400003D0012074E7012072E7002070E700002D
:104350000C809F01401EB0F1807F01D30120704787
:104360004FF0E0214861044AF0201070002088617D
:10437000072008610020704723ED00E07047704778
:1043800070477047704770472DE9F00190F83C2066
:10439000012A4DD0012480F83C40022280F83D20C3
:1043A00002685368D2F808C0234D244E244FAA4215
:1043B00003D0B24201D0BA4205D123F47003D1F840
:1043C000048048EA030323F0700323F00073D1F85C
:1043D000008048EA030353600268AA421AD0B2F18F
:1043E000804F17D0A2F18043B3F5806312D0A2F1C1
:1043F0008043B3F500630DD0A2F18043B3F5406371
:1044000008D0B24206D0A2F18043B3F5A03301D068
:10441000BA4204D12CF0800389681943916080F876
:104420003D40002180F83C10BDE8F00100207047BD
:10443000BDE8F00102207047002C0140003401402B
:1044400000500140704710B50446002C03D094F88A
:104450003D0010B107E0012010BD002084F83C00B1
:10446000204600F023F8022084F83D00211D20683A
:1044700001F0ACFB012084F8480084F83E0084F889
:104480003F0084F8400084F8410084F8420084F83A
:10449000430084F8440084F8450084F8460084F81A
:1044A000470084F83D00002010BD000008B5114A07
:1044B00001681148914208D1016E41F40051016632
:1044C000006E00F40050009008BD0C4A9142FBD1F0
:1044D000016E41F480110166006E002200F480102C
:1044E000009011464E20FFF7D7F8BDE808404E2057
:1044F000FFF7C4B8003401400010024000500140F2
:1045000090F83D10012901D001207047022180F868
:104510003D100168CA6842F00102CA600068A0F15B
:104520008041B1F5963126D0B0F1804F23D0A0F173
:104530008041B1F580611ED0A0F18041B1F50061EC
:1045400019D0A0F18041B1F5406114D0A0F18041B3
:10455000B1F59A310FD0A0F18041B1F5A0310AD068
:10456000A0F18041B1F5A83105D0016841F0010109
:104570000160002070478168054A11400629F8D083
:10458000B1F5803FF5D0016841F001010160F0E72D
:104590000700010070B50446002594F83C0001288E
:1045A00017D0012684F83C60022084F83D00206882
:1045B000826822F0770222F4441222F47F42826061
:1045C0000868B0F5805F2BD010DC10F00F0F03D01F
:1045D00025E04FF0020070BD4FEA2012082A1ED2DB
:1045E000DFE802F05B5B5B5B513D47252E4BC21A57
:1045F000984252D00DDCB0F5005F24D0B0F5801F9A
:104600004BD0B0F1101F48D0A0F58011203906D151
:1046100043E0102A41D0202A3FD0402A3DD0012536
:1046200084F83D60002084F83C00284670BDCB68CB
:104630004A688968206801F037FB2068816841F08A
:1046400077018160ECE7CB684A688968206801F0EF
:104650002BFB2068816841F480418160E0E7CA68F3
:104660004968206801F035FB5021206801F027FBE4
:10467000D6E7CA684968206801F03EFB60212068DF
:1046800001F01DFBCCE7CA684968206801F021FBF6
:104690004021206801F013FBC2E722680146104662
:1046A00001F00DFBBCE7000030001000704770B552
:1046B0000446206801694FF0000511F0020F17D081
:1046C000C16811F0020F13D0E91E016101202077AB
:1046D0002068806910F0030F03D02046FFF7E6FF43
:1046E00005E0204600F0E8F8204600F0E6F82577DF
:1046F0002068016911F0040F18D0C16811F0040F8F
:1047000014D06FF0040101610220207720688069D5
:1047100010F4407F03D02046FFF7C8FF05E0204695
:1047200000F0CAF8204600F0C8F825772068016933
:1047300011F0080F18D0C16811F0080F14D06FF0F5
:1047400008010161042020772068C06910F0030F80
:1047500003D02046FFF7AAFF05E0204600F0ACF8A2
:10476000204600F0AAF825772068016911F0100FA3
:1047700018D0C16811F0100F14D06FF01001016152
:10478000082020772068C06910F4407F03D02046BD
:10479000FFF78CFF05E0204600F08EF8204600F081
:1047A0008CF825772068016911F0010F09D0C168E4
:1047B00011F0010F05D06FF001010161204600F0FA
:1047C0007DF82068016911F0800F09D0C16811F0EF
:1047D000800F05D06FF0800101612046FFF7CFFD0B
:1047E0002068016911F4807F09D0C16811F0800F41
:1047F00005D06FF4807101612046FFF7BFFD20688E
:10480000016911F0400F09D0C16811F0400F05D0C7
:104810006FF040010161204600F051F82068016905
:1048200011F0200F09D0C16811F0200F05D06FF0F2
:10483000200101612046FFF7A3FD2068016911F402
:10484000801F09D0C16811F4801F05D06FF480115A
:1048500001612046FFF796FD2068016911F4001FF1
:1048600009D0C16811F4001F05D06FF40011016177
:104870002046FFF786FD2068016911F4800F09D0FA
:10488000C16811F4800F05D06FF4800101612046EA
:10489000FFF779FD2068016911F4000F0BD0C168A2
:1048A00011F4000F07D06FF4000101612046BDE84C
:1048B0007040FFF7C7BD70BD7047704770477047C5
:1048C00090F88010012918D0012180F8801024214F
:1048D000C0F8841001680A680B6823F001030B60BC
:1048E00022F0005100224266036819602021C0F8BE
:1048F000841080F8802000207047022070477047A5
:10490000704770B5044694F8800001281DD001203E
:1049100084F880002420C4F88400206805680268B8
:1049200022F0010202602068826822F06062114376
:104930008160204601F0F2F9206805602020C4F86B
:104940008400002084F8800070BD022070BD70B526
:10495000044694F8800001281DD0012084F88000CE
:104960002420C4F8840020680568026822F001024F
:1049700002602068826822F0604211438160204614
:1049800001F0CCF9206805602020C4F884000020E4
:1049900084F8800070BD022070BD7047704770B50C
:1049A0000446206850E8001F21F4F07140E800122E
:1049B000002AF6D12068083050E8001F21F00101DC
:1049C00021F0845140E80012002AF3D1E06E012862
:1049D00008D1206850E8001F21F0100140E80012C3
:1049E000002AF6D1206880684FF0100610F0800F82
:1049F0004FF0000515D02068083050E8001F21F066
:104A0000800140E80012002AF5D1A06F48B185630B
:104A1000A06FFEF738F920B1A06FFEF7C0F920288B
:104A200026D02068806810F0400F15D0206808302C
:104A300050E8001F21F0400140E80012002AF5D1A3
:104A4000E06F48B18563E06FFEF71DF920B1E06FBC
:104A5000FEF7A5F920280FD0A4F85650A4F85E5010
:104A600021680F200862606EB0F1005F08D00CE092
:104A7000C4F88C60032070BDC4F88C60032070BD46
:104A80002068816941F0100181612068816941F0ED
:104A9000080181612020C4F88400C4F88800E5661C
:104AA000C4F88C50002070BD084910B588420CD164
:104AB00007A001F041FF0548FFF771FFBDE8104076
:104AC00064220A49014800F097BA10BD3C03002057
:104AD00048414C5F554152545F4572726F72436159
:104AE0006C6C6261636B210D0A000000C20700203C
:104AF000D0F88410D0F888000843704770B5044699
:104B00002368D86919689A6840F60F0C00EA0C0C03
:104B1000BCF1000F0FD110F0200F0CD001F02005D8
:104B200002F08056354306D0216F00297ED0204602
:104B3000BDE8704008470025BCF1000F77D0DFF8D2
:104B4000ECC2BB4E02EA0C0C0E405CEA06066ED0CC
:104B500010F0010F0AD011F4807F07D001261E62E9
:104B6000D4F88C3043F00103C4F88C3010F0020FFD
:104B70000BD012F0010F08D0266802233362D4F85C
:104B80008C3043F00403C4F88C3010F0040F0BD0C9
:104B900012F0010F08D0266804233362D4F88C3059
:104BA00043F00203C4F88C3010F0080F0FD001F06E
:104BB000200353EA0C030AD0D4F800C00823CCF831
:104BC0002030D4F88C3043F00803C4F88C3010F453
:104BD000006F0ED011F0806F0BD0D4F800C04FF4EE
:104BE0000063CCF82030D4F88C3043F02003C4F8B4
:104BF0008C30D4F88C30002B3CD010F0200F09D032
:104C000001F0200002F08051084303D0216F09B168
:104C100020468847D4F88C002168896811F0400F3D
:104C200002D110F0280F2AD0204601E022E02CE02B
:104C300001F048F92068806810F0400F1BD0206810
:104C4000083050E8001F21F0400140E80012002A1F
:104C5000F5D1E06F58B177498163E06FFEF755F801
:104C6000002807D0E06F816BBDE870400847204600
:104C7000FFF71AFF70BD2046FFF716FF70BD2046F4
:104C8000FFF712FFC4F88C5070BDD4F86CC0BCF1B3
:104C9000010F7DD110F0100F7AD011F0100F77D0E6
:104CA00010201862206880684FF0200310F0400F39
:104CB00046D0E16F0868406880B20028E4D0B4F8BC
:104CC0005C208242E0D9A4F85E000868006810F019
:104CD000200F2BD1206850E8001F21F4807140E89C
:104CE0000012002AF6D12068083050E8001F21F099
:104CF000010140E80012002AF5D12068083050E890
:104D0000001F21F0400140E80012002AF5D1C4F84C
:104D10008830E566206850E8001F21F0100140E867
:104D20000012002AF6D1E06FFDF7ADFFB4F85C0089
:104D3000B4F85E10401A81B22046FFF7E0FD70BD66
:104D4000B4F85C00B4F85E10401A81B2B4F85E00AA
:104D50000028F4D00029F2D0206850E8002F22F477
:104D6000907240E8002CBCF1000FF5D120680830AB
:104D700050E8002F22F0010222F0805240E8002C7F
:104D8000BCF1000FF2D1C4F88830E566256700E079
:104D90000CE0206850E8002F22F0100240E80023C9
:104DA000002BF4D12046FFF7AAFD70BD10F4801F40
:104DB0000AD012F4800F07D04FF4801018622046FA
:104DC000BDE87040FFF7EABD10F0800F0CD001F095
:104DD000800302F400021A4306D0616F0029E4D078
:104DE0002046BDE87040084710F0400F07D011F092
:104DF000400F04D02046BDE8704001F08BB810F49D
:104E0000000F07D011F0804F04D02046BDE870405D
:104E1000FFF7C3BD10F0807FC7D011F0004FC4D0A2
:104E20002046BDE87040FFF76BBD00000100001098
:104E300020010004B15E000810B50446002C03D028
:104E4000D4F8840010B107E0012010BD002084F8E0
:104E50008000204600F028F82420C4F88400206850
:104E6000016821F001010160204601F091FA01285A
:104E700018D0A06A10B1204600F07AFF206841687F
:104E800021F4904141602068816821F02A0181600D
:104E90002068016841F0010101602046BDE8104032
:104EA00000F0D2BF012010BD2DE9F0419CB00446B6
:104EB000142115A8FBF7E6F954216846FBF7E2F93F
:104EC00047492068474C0727022500264FF0010874
:104ED000884227D1CDE900866846FEF799FC08B1E3
:104EE000FCF78AFB206E40F480402066206E00F4C0
:104EF00080401A90E06C40F00400E064E06C15A97A
:104F000000F004001A90302081E821013648CDE9F4
:104F10001867FEF773F8002211462520FEF7BCFB48
:104F200025202AE0314988422CD168460296009516
:104F3000FEF76EFC08B1FCF75FFBA06D40F400309B
:104F4000A065A06D00F400301A90E06C40F0010004
:104F5000E064E06C15A900F001001A900C2081E8D3
:104F600021014FF09040CDE91867FEF747F8002285
:104F700011462620FEF790FB2620FEF77FFB1CB093
:104F8000BDE8F0811A498842F9D1042000900396C7
:104F90006846FEF73DFC08B1FCF72EFBA06D40F41F
:104FA0008020A065A06D00F480201A90E06C40F095
:104FB0000200E064E06C15A900F002001A904FF4C2
:104FC000406081E821010B48CDE91867FEF716F82B
:104FD000002211462720FEF75FFB2720CDE70000C7
:104FE0000038014000100240000800480044004022
:104FF000004800400004004810B4D0F88830202B4E
:1050000002D010BC02207047F9B1F2B190F88030A4
:10501000012B1DD0012380F880300023C366036874
:10502000A3F1804CBCF5004C0CD05B6813F4000F6E
:1050300008D0036853E800CF4CF0806C43E800C40C
:10504000002CF6D110BC01F047BB10BC012070470A
:1050500010BC02207047000070B5144D0446A842F1
:1050600018D113A001F068FC642205F2864128469D
:10507000FFF7C2FF05F2864111A001F05DFC05F2C9
:105080008640A8656420A5F85E00014605F28640CA
:10509000FBF7F8F80D4DAC4201D1FCF7CBFBAC426D
:1050A00003D1BDE87040FCF78BBB70BD3C03002012
:1050B0006275666665722066756C6C210D0A00006B
:1050C00055332025733B200D0A0000001C020020F0
:1050D0002DE9F84304460E4615461F46D4F88400D1
:1050E000202802D00220BDE8F883D6B1CDB194F8D3
:1050F0008000012818D0012084F880004FF00009BA
:10510000C4F88C902120C4F88400FEF78BF8804608
:10511000A4F85450A4F85650A068B0F5805F06D0AB
:1051200007E00120BDE8F8830220BDE8F88320698C
:1051300088B13546002684F88090B4F85600D0B186
:105140004346002280212046009701F05FFB20B1FA
:105150000320BDE8F8830025EDE7BDB1216828787C
:1051600088626D1CB4F85600401EA4F85600B4F8CE
:1051700056000028E4D143460022402120460097F3
:1051800001F044FB48B10320BDE8F8833088216872
:10519000C0F308008862B61CE4E72020C4F884004D
:1051A0000020BDE8F8837047FEE701688A6912F0C5
:1051B000020F01D000228A620068816911F0010F9C
:1051C00003D1816941F00101816170472DE9F04708
:1051D000044688461746002520688169002611F09C
:1051E000100FA9464FF0200A4BD01021C1613AE0C0
:1051F000B8F1FF3F37D0FEF715F8C01B404502D885
:10520000B8F1000F2FD12068416801F4804194F873
:105210004220836913F4004F0BD0B1F5804F08D0C2
:10522000202A06D0416841F480414160FDF7FAFF31
:1052300007462068806910F0200F14D1FDF7F2FFB7
:10524000C01B19280AD9606C40F02000606484F803
:1052500041A084F8429084F840900125206880693C
:1052600010F0200FEAD02068806910F0200F01D1E3
:10527000002DBDD015B92068C0F81CA046F004066A
:1052800001252168886910F4807F05D046F0010669
:105290004FF48072CA61012510F4806F06D046F089
:1052A000080622684FF48061D161012510F4007F67
:1052B00006D046F0020621684FF40070C86101254F
:1052C00085B12046FFF771FF20684168074A114009
:1052D0004160606C3043606484F841A084F842907F
:1052E00084F840902846BDE8F087000000E800FE02
:1052F0002DE9F8430446DDF82090DDF824801646B9
:105300001F4619480090FAB20023204600F02EF8FC
:1053100042464946204600F0A7F810B10120BDE8FA
:10532000F883F5B2012F0BD02168300A886242461B
:105330004946204600F098F828B10120BDE8F883DE
:105340002068856201E0206885624B46002240218A
:105350002046CDF8008000F025F810B10120BDE80E
:10536000F8830020BDE8F88300200080DDF800C04D
:10537000C1F3090141EA0241194341EA0C0121F05C
:105380000041006842684FF4806303EA5C53DFF831
:1053900010C043EA0C039A43114341607047000078
:1053A000FF63FF032DE9F0410446069F8846164639
:1053B0001D462068806938EA000016D00020B042FF
:1053C00010D1B5F1FF3F05D0FDF72CFFC01BA8425F
:1053D0000DD865B12068806938EA000016D0002039
:1053E000B042EED00020BDE8F0810120E7E7606C1C
:1053F00040F020006064202084F84100002084F800
:10540000420084F840000120BDE8F0810120E7E778
:1054100070B504460D4616462068806910F0200FCE
:1054200012D1324629462046FFF7D0FE08B10120AE
:1054300070BDFDF7F7FE801BA84207D835B1206884
:10544000806910F0200FECD0002070BD606C40F03F
:1054500020006064202084F84100002084F842008D
:1054600084F84000012070BD70B504460D46164614
:105470002068806910F0020F15D132462946204677
:10548000FFF7A4FE08B1012070BDB5F1FF3F05D0C4
:10549000FDF7C8FE801BA84207D835B12068806997
:1054A00010F0020FE9D0002070BD606C40F02000C9
:1054B0006064202084F84100002084F8420084F8D1
:1054C0004000012070BD10B5012000F0A5F8BDE836
:1054D00010400520FDF766BC10B5094C01220421DF
:1054E0002046FDF799FE012001F0D8FE002204219C
:1054F0002046FDF791FEBDE81040322001F0CEBEFF
:105500000004004810B560B1C031CCB20120FDF7F5
:1055100049FC204600F080F8BDE810400520FDF76A
:1055200041BC8031F1E7000010B5194C0022022186
:105530002046FDF771FE002000F04CF82820FDF712
:1055400031FC002201212046FDF766FE032000F019
:1055500041F8FFF7C1FF0520FDF724FCFFF7BCFF72
:10556000642001F09BFEFFF7B7FF022000F032F845
:10557000FFF7B2FF282000F04FF80C2000F04CF8A5
:10558000062000F049F8BDE81040FFF79CBF00007E
:105590000004004870B5084C05460122114620461B
:1055A000FDF73AFE284600F037F82046BDE8704087
:1055B00000220121FDF730BE0004004810B504466A
:1055C00003E000BFFFF7E6FF641C20780028F9D154
:1055D00010BD000070B50F4D044600F001024021DF
:1055E0002846FDF719FEC4F3400280212846FDF746
:1055F00013FEC4F380024FF480712846FDF70CFEC1
:10560000C4F3C0022846BDE870404FF40071FDF7B6
:1056100003BE00000008004810B504460009FFF76B
:10562000D9FFFFF759FF2046FFF7D4FFBDE8104030
:10563000FFF752BF30B58BB00024089409942021A5
:1056400068460A94FAF71EFE1B484FF0A041042555
:1056500001604912C0E90114C4600461C0E9054554
:10566000047701214177016280F82440C462046319
:1056700080F838400903C16380F84040FCF7DAFF46
:10568000A8B908A90C480894FCF7CAFA78B90B48DD
:10569000009006200190052002907F200594CDE91E
:1056A000030569460448FCF783FB002801D0FBF79B
:1056B000A3FF0BB030BD00006000002004006008B4
:1056C00030B589B020216846FAF7DCFD2648254927
:1056D000002401604912C0E90114C46001210822BC
:1056E0000461C0E90512047741770425056280F85A
:1056F0002440C462046380F838400903C16380F821
:105700004040FCF797FF48BB184800900620CDE9C1
:1057100001047F200594CDE9030569461248FCF792
:1057200047FBD8B9124800900C20019069460E48FA
:10573000FCF73EFB90B90F4800901220019069469B
:105740000948FCF735FB48B90B4800901820019038
:1057500069460548FCF72CFB002801D0FBF74CFFFD
:1057600009B030BD00010050CC00002000005247BD
:105770000800900C1000C010002090362DE9F04178
:1057800086B014216846FAF77DFD3D48C16C41F0B2
:105790002001C164C16C01F020010591C16C41F090
:1057A0000401C164C16C01F004010591C16C41F0B8
:1057B0000101C164C16C01F001010591C16C41F0AE
:1057C0000201C164C06C2F4F00F0020041F6C474A6
:1057D0000590002221463846FDF71EFD4FF0904609
:1057E000002201213046FDF717FDDFF89C800022E2
:1057F00007214046FDF710FD0125CDE900450024B5
:105800000294694638460394FDF7F8FB0095CDE90C
:105810000154694630460394FDF7F0FB07200090E1
:10582000CDE90154694640460394FDF7E7FB4FF28A
:10583000F02000900320CDE9010469464046FDF7C1
:10584000DDFB4FF440604FF48815CDE90005694653
:1058500002943046FDF7D2FB0820CDE900056946E9
:1058600002944046FDF7CAFB002211462820FDF7AE
:1058700013FF2820FDF702FF06B0BDE8F08100000D
:10588000001002400008004800040048104810B50D
:105890000E4901600F49416000210122C0E9021256
:1058A000016141618161C1610162FDF719FD50B97A
:1058B00000210748FDF7BCFC28B900210448FDF78A
:1058C000E4FC002801D0FBF797FE10BD0058004013
:1058D00038010020DFC4A02010B588B0002417488C
:1058E000059406940394049400940194124902943C
:1058F00001607F21C0E9011440F2E731C0E90314DF
:105900008021C0E90541FEF79EFD80B94FF480502B
:10591000039003A90948FEF73DFE40B900940194A5
:10592000694606480294FEF72FFD002801D0FBF7D8
:1059300063FE08B010BD000000500140D0010020FF
:1059400010B588B000241748059406940394049475
:10595000009401941249029401609521C0E9011458
:1059600040F2F311C0E9031444618461FEF76BFD5A
:1059700088B94FF48050039003A90A48FEF70AFE45
:1059800048B91020CDE90004694606480294FEF7A4
:10599000FBFC002801D0FBF72FFE08B010BD000073
:1059A0000034014084010020144810B51249016000
:1059B0004FF416514160002181600C22C160C0E9A2
:1059C00004128161C161016241628162FFF734FAB0
:1059D00070B900210948FEF7BAFF48B9002107480D
:1059E000FEF78FFF20B90548FEF76AFF002801D0B7
:1059F000FBF702FE10BD0000003801401C02002031
:105A0000144810B5124901604FF41651416000214D
:105A100081600C22C160C0E904128161C161016230
:105A200041628162FFF708FA70B900210948FEF768
:105A30008EFF48B900210748FEF763FF20B90548EB
:105A4000FEF73EFF002801D0FBF7D6FD10BD000099
:105A500000440040AC020020144810B51249016017
:105A60004FF4E1314160002181600C22C160C0E946
:105A700004128161C161016241628162FFF7DCF958
:105A800070B900210948FEF762FF48B900210748B4
:105A9000FEF737FF20B90548FEF712FF002801D0B6
:105AA000FBF7AAFD10BD0000004800403C030020A9
:105AB000FEE7FEE7704700000F49C86800F00302E8
:105AC000C868C0F30310401C0C4B032A0DD0B3FB75
:105AD000F0F0CA68C2F306225043C968C1F34161BD
