:020000040800F2
:10000000E8690020F1010008673A0008F7360008A7
:10001000653A00087F080008F14A00080000000067
:10002000000000000000000000000000053E000885
:10003000BB09000800000000AF3B0008073E0008B5
:100040000B0200080B0200080B0200080B0200085C
:100050000B0200080B0200080B020008C50900088B
:100060000B0200080B0200080B0200080D09000833
:100070000B0200080B0200080B0200080B0200082C
:100080000B0200080B0200080B0200080B0200081C
:100090000B0200080B0200080B0200080B0200080C
:1000A0000B0200080B0200080B0200080B020008FC
:1000B0000B020008853E0008C13E00080B02000844
:1000C0000B0200080B0200080B0200080B020008DC
:1000D0000B0200089D4A0008C14A00080B020008F4
:1000E000BD0900080B0200080B0200080B02000803
:1000F0000B0200080B0200080B0200080B020008AC
:100100000B0200080B0200080B0200080B0200089B
:100110000B0200080B0200080B0200080B0200088B
:100120000B0200080B0200080B0200080B0200087B
:100130000B0200080B0200080B0200080B0200086B
:100140000B0200080B0200080B0200080B0200085B
:100150000B0200080B0200080B0200080B0200084B
:100160000B0200080B0200080B0200080B0200083B
:100170000B0200080B0200080B0200080B0200082B
:100180000B0200080B0200080B0200080B0200081B
:100190000B020008000000000B0200080B02000820
:1001A0000B0200080B0200080B0200080B020008FB
:1001B0000B0200080B0200080B0200080B020008EB
:1001C0000B0200080B0200080B0200080B020008DB
:1001D0000B0200080B020008DFF810D000F002FB51
:1001E000004800475D660008AFF30080E869002022
:1001F0000648804706480047FEE7FEE7FEE7FEE7C1
:10020000FEE7FEE7FEE7FEE7FEE7FEE7753E0008D5
:10021000D90100082DE9F05F0546002092469B4673
:1002200088460646814640241BE02846414647460C
:10023000224600F01DFA53465A46C01A914110D387
:1002400011461846224600F004FA2D1A67EB010801
:100250004F4622460120002100F0FBF917EB000970
:100260004E41201EA4F10104DFDC484631462A46F7
:100270004346BDE8F09F000038B5D0E90221491E91
:1002800001EB410102EBC1014268C1EB011102EB3C
:1002900081010268C1EB011102EB8102D0E9043156
:1002A00001EB410103EB81013023A1F5527191FB78
:1002B000F3F4174D6C4302EBC41291FBF3F403FB10
:1002C000141100921A2902DB124B1A4400920C22DC
:1002D00091FBF2F3104C6343009C04EBC3130093B7
:1002E00091FBF2F302FB13110C4A08E0491E40F2A5
:1002F000A324535C6343009C04EBC31300930029C5
:10030000F4DC0146684600F0C9F9009838BD0000E9
:100310003F0C0F008051010067C20300E4C90008D0
:10032000F0B52A4B2A4C85B00021826902EB4202CB
:100330000A44491CA25C03F8012B0329F5DB244C79
:100340004FF0200C002103F801CB1534026902EBB9
:1003500042020A44491CA25C03F8012B0329F5DB85
:10036000C16800918168019141680291016803911F
:10037000406918A200F26C706C460A27049017E0DE
:1003800003F8010B12F8010F08B1022500E0042563
:1003900002CC284607E091FBF7F607FB161691FB07
:1003A000F7F130361E54061EA0F10100F3DC2B4499
:1003B00010780028E4D11F7058700448017A302961
:1003C00001D180F808C005B00048F0BD9B63002053
:1003D000F0C9000820203A3A2000000040EA01035A
:1003E0009B0703D009E008C9121F08C0042AFAD2EB
:1003F00003E011F8013B00F8013B521EF9D27047AF
:10040000D2B201E000F8012B491EFBD27047002256
:10041000F6E710B513460A4604461946FFF7F0FF03
:10042000204610BD421E12F8013F002BFBD111F8EF
:10043000013B02F8013B002BF9D1704730B505466E
:100440002A460B4612F8010B13F8014B08B1A042E3
:10045000F8D01CB1002802D06D1CF1E7284630BD51
:1004600010B5044604E00B7800F8013B03B1491CC9
:10047000521EF8D2204610BD421C10F8011B002964
:10048000FBD1801A704710B5002200E0521C835C3B
:100490008C5CA34201D1002BF8D1D8B2E1B2401A52
:1004A00010BD30B504460020034600E05B1C9342BB
:1004B00003D2E05CCD5C401BF8D030BD034611F8A0
:1004C000012B00F8012B002AF9D1184670470000D3
:1004D00070B50F4D00B92868002412E00A4602E00A
:1004E0009E4203D0521C1378002BF9D1DAB222437A
:1004F00005D02BB124B1002100F8011B04E0044613
:10050000401C0678002EE9D12860204670BD00000E
:10051000840600202DE9FE4F81EA030404F0004424
:1005200021F0004100944FF0000B23F0004350EA0B
:1005300001045ED052EA03045BD0C3F30A54C1F352
:100540000A552C44A4F2F3340194A0FB0254C1F3E5
:10055000130141F48011C3F3130343F4801301FB2F
:10056000024400FB034E840A970A44EA815447EA96
:100570008357A4FB076802958D0A05FB07854FEAA0
:10058000932C04FB0C542705029D4FEA065847EABA
:100590001637B5EB08056EEB070C870E920E47EA8F
:1005A000811742EA8312A7FB0201B6EB0B0164EB51
:1005B00000042B0D43EA0C335E1844EB1C50DA4662
:1005C0005146E7FB0201C5F313044FEA0B3343EA3C
:1005D00014534FEA0432019C43EA0603A4F10C04CD
:1005E0000294009CCDE900B400F0ADF803B0BDE882
:1005F000F08F00200146F9E73EB5CA17CB0F002463
:1006000050405140C0186141DA0740F23343009432
:10061000CDE901232246234600F095F803B030BD12
:10062000C1F30A5210B5C1F3130140F2FF3341F494
:1006300080119A4201DA002010BD40F233439A4201
:10064000A2F2334203DC524200F012F810BD904097
:1006500010BD202A04DB203A00FA02F10020704786
:100660009140C2F1200320FA03F3194390407047F0
:10067000202A04DB203A21FA02F00021704721FAF7
:1006800002F3D040C2F1200291400843194670475E
:10069000014900F003B80000B863002010B50068FD
:1006A0003C22B0FBF2F302FB1303B0FBF2F00B6051
:1006B000B0FBF2F302FB1303B0FBF2F018224B6025
:1006C000B0FBF2F302FB1303B0FBF2F0021D8B60F0
:1006D0000723B2FBF3F403FB1422800040F2B5536E
:1006E00000F66C308A61B0FBF3F2B0FBF3F403FB6D
:1006F0001400443280084A61C8613B2802D3920743
:1007000000D0401C0022074C13460A61E25C824282
:1007100003D8801A5B1C0B61F8E7401CC8600846D0
:1007200010BD000029CA000810B5141E73F10004A2
:1007300008DA401C41F1000192185B411A4301D1D3
:1007400020F0010010BD2DE9F04D92469B4611B1FD
:10075000B1FA81F202E0B0FA80F220329046FFF75F
:1007600078FF04460F4640EA0A0041EA0B0153466F
:100770005A46084313D0114653EA010019D0C8F174
:1007800040025046FFF774FF05460E465046594654
:100790004246FFF75EFF084305D0012004E02046F3
:1007A0003946BDE8F08D0020054346EAE0762C434B
:1007B00037430A986305E40AA0EB08000022FD0A0B
:1007C00044EA47540A3002D500200146E9E7010512
:1007D00010196941DDE9084500196941BDE8F04D8E
:1007E000A2E70000064C074D06E0E06840F0010378
:1007F00094E8070098471034AC42F6D3FFF7F0FCBA
:1008000060FE000880FE000870B58C1810F8015BCF
:1008100015F0070301D110F8013B2A1106D110F899
:10082000012B03E010F8016B01F8016B5B1EF9D19D
:100830002B0705D40023521E0DD401F8013BFAE723
:1008400010F8013BCB1A921C03E013F8015B01F88E
:10085000015B521EF9D5A142D8D3002070BD70B5FE
:100860000E460546002404E06D1C00F009F804FB68
:100870000604287808B12028F6D1A0B270BDFEE7A2
:10088000A0F13001092901D8C8B27047A0F1610177
:10089000052901D8573804E0A0F141010529F4D811
:1008A0003738C0B2704710B5846A204600F02CFA81
:1008B0000120207110BD10B5846A204600F046F971
:1008C0000120207110BD10B5846A206940F0040039
:1008D0002061204600F041FA0120207110BD10B5C2
:1008E000846A206940F004002061204600F030F95D
:1008F0000120207110BD10B5806A00F02DFA10BDE6
:1009000010B5806A00F023F910BD0000014800F026
:10091000B8BB0000346000200D4902688A4201D251
:100920000C4901E00B492031D2B21423083AB2FB42
:10093000F3F2436C02F01F0223F0030319448164B5
:1009400004498031C1640121914001657047000074
:1009500008040240000802400179074A02EB8102C4
:100960004265054A4432491E826501F01F02012199
:100970009140C16570470000FC08024030B5D0E9E5
:1009800013456560446D14B1D0E91645656090F873
:10099000444004F01F050124AC40056C6C60046801
:1009A00063608368102B036803D099600068C2609D
:1009B00030BD9A600068C16030BD70474FF4805010
:1009C00000F050BD022000F04DBD72B6FEE7000001
:1009D000144A117F1448012901D003290FD103685B
:1009E00023F400730360036843F400630360036847
:1009F00023F400630360036843F400730360022977
:100A000001D003290BD1016841F4805101600168D4
:100A100021F480510160016841F48061016000208F
:100A20001077704760060020002002400C490A6AD7
:100A3000520210D5C20703D04A6942F004024A614B
:100A4000800703D5486940F400404861486940F494
:100A5000803048617047486948F204021043F4E767
:100A6000002002400E4A136A5B0201D5C90703D079
:100A7000516921F4006102E0516941F40061516162
:100A80005169C0B221F47E7141EAC00050615069E1
:100A900040F002005061506940F48030506170476E
:100AA00000200240054910B54C6944F001044C6136
:100AB0000260BFF36F8F436010BD00000020024052
:100AC000094A10B55469402344F480245461EFF37B
:100AD000108272B610C95B1E10C013F0FF03F9D16B
:100AE00082F3108810BD00000020024070B5064659
:100AF00000F0F2FD0546134C07E000BF00F0ECFDEE
:100B0000401BB04201D9032070BD2069C003F5D459
:100B100020694CF2FA3108400CD00B494A68024374
:100B20004A60010F01D0A169A161010100D02061DB
:100B3000012070BD2069C00701D001202061002084
:100B400070BD000000200240600600207047704722
:100B5000704700002DE9F0470446407990460D4665
:100B600001280BD04FF0010984F805900220207174
:100B7000A96808F01006042903D045E00220BDE86A
:100B8000F08700F0A9FD07465FEA08004FF0030870
:100B900005D01CE000F0A0FDC01B01280FD8206884
:100BA000406B0004F6D4012000F06EFB2168686AF7
:100BB000086416E000F090FDC01B012807D92069E9
:100BC00040F00800206184F804800320D7E7206803
:100BD000406B0028EEDB012000F056FB2168686ABC
:100BE00048642068816C40F2FF32B2409143AA6AA7
:100BF000B240114381642068C16CFF22B24091432E
:100C0000EA6AB2401143C164E869012808D1226848
:100C1000916B1F20B0408143286AB0400843906325
:100C20002068C06B0721B1408843A969012903D01E
:100C3000022955D06969E9B300216B69AA681A4392
:100C40000A434FF4807101FA06F398432B79012B84
:100C500000D0002111434FF4007202FA06F39843CA
:100C60006B79012B00D0002220F44047286842EA2B
:100C70000108022836D00743216808FA06F03843F5
:100C8000C863206801684FF48042B240914301601C
:100C90002268116840F6FE70B0408143E868B040B9
:100CA0000843106020680168C022B240914301608F
:100CB000287B00E014E0297C2268C0F3830001F067
:100CC0003C0140EA8110116E40F60F73B340994326
:100CD000B0400143116684F80490002060714EE733
:100CE0000121AAE701F09EF80549884202D947F49C
:100CF0000047C1E703498842BED947F48047BBE7B4
:100D00000068890900B4C4040E480D4990F9002018
:100D10008B5C0D49096823B1012B04D0022B04D14F
:100D20000BE00A4B00E00A4BCB60521C51B2017041
:100D3000632901D1002101707047064BF4E70000E0
:100D40002C0000200000002034600020BC23002084
:100D5000BC4B0020BC3700207047704770B50400C2
:100D600003D02079002510B105E0012070BD657128
:100D7000204600F007F80220207125610120207133
:100D8000002070BDF0B587B0054614216846FFF716
:100D90003EFB1D492868884233D11C49C86C40F489
:100DA0008030C864C86C00F480300590C86C40F096
:100DB0000100C864C86C102700F00100009705907E
:100DC00003200026CDE9010669464FF0904000F06F
:100DD00055FB104C0E4820600620C4E90107802016
:100DE000C4E90360800060618000A0612020C4E944
:100DF0000706204600F0A2F908B1FFF7E6FDAC6057
:100E0000A56207B0F0BD00000008005000100240CD
:100E100008000240346000202DE9F041044640798A
:100E20000D46012822D04FF0010884F805800226E3
:100E3000267121680A6805F0100708FA07F00243D6
:100E40000A60404600F020FA2068016885B101F48C
:100E50007811BE40B14203D1416841F002014160C6
:100E600084F8048000206071BDE8F0810220FBE777
:100E7000C1F344010129F3D1416841F00101EEE7DA
:100E80002DE9F04104460D46174661790022069887
:100E9000012920D00126667102212171F5B1D4F813
:100EA0000CC03849CCF82C10D4F80CC03649CCF81A
:100EB0003010D4F80CC03549CCF834102168D1F882
:100EC00000C04CF0805CC1F800C090B3042834D05E
:100ED000082837D134E00220BDE8F081D4F808C0FA
:100EE0002B49CCF82C10D4F808C02A49CCF8301083
:100EF000D4F808C02849CCF834102168D1F800C0D3
:100F00004CF4805CC1F800C020B1042805D008284A
:100F100008D105E02268083204E022680C3201E0C2
:100F2000226810322068016841F400510160A06815
:100F30000EE0FFE72268143204E02268183201E074
:100F400022681C322068016841F000510160E068AD
:100F5000394600F053F907004FF00000607105D0EA
:100F6000206940F0040020613846B5E72068016838
:100F700005F01002964031430160012000F084F931
:100F8000F2E70000B708000801090008DF080008C0
:100F9000A7080008F7080008C708000810B590F86F
:100FA000253000210122022B03D00421C16301213D
:100FB00022E003681C6824F00E041C60836C1C682B
:100FC00024F480741C6003681C6824F001041C6015
:100FD00090F84430046C03F01F0302FA03F36360DB
:100FE000D0E913345C60436D33B11C6824F4807421
:100FF0001C60D0E916345C6080F82520002280F85F
:101000002420084610BD70B590F825200024012149
:101010002346022A07D00422C26380F8251080F8F4
:101020002430012429E00268156825F00E051560BA
:101030000268156825F001051560826C156825F4B5
:101040008075156090F84420056C02F01F0201FACB
:1010500002F26A60D0E913255560426D32B115681D
:1010600025F480751560D0E91625556080F82510A7
:1010700080F82430816B01B18847204670BDC06B79
:101080007047F0B4016C0C6801680D6890F844205A
:1010900002F01F06042202FA06F3234211D06B0766
:1010A0000FD50B689B0603D40B6823F004030B6079
:1010B00090F8441001F01F018A40016C4A60016BF6
:1010C0001DE0022303FA06F727424FF0000C4FF011
:1010D000010218D0AF0716D50C68A40605D40C6819
:1010E00024F00A040C6080F8252090F8441001F0E8
:1010F0001F018B40016C4B6080F824C0C16A00293D
:101100001AD0F0BC08470823B340234214D02B0761
:1011100012D50B6823F00E030B6090F84410036C9B
:1011200001F01F0102FA01F15960C26380F8252025
:1011300080F824C0416BE2E7F0BC704770B5040052
:101140000CD02B4A21681420914209D2294A0A4422
:10115000B2FBF0F08000606427480AE0012070BD17
:10116000234A52420A44B2FBF0F0800060642048F7
:1011700008382064022084F825000A6847F6F070D9
:101180008243D4E902031843D4E904352B431843BE
:10119000A3691843E3691843236A1843104308609E
:1011A0002046FFF7B9FBA0680025B0F5804F00D1BD
:1011B0006560A16C20790860D4E913014160606822
:1011C000401E032808D82046FFF7C6FB606D056067
:1011D000D4E91601416002E06565A565E565E56352
:1011E000012084F8250084F82450002070BD000000
:1011F00008040240F8FFFDBF0000024070B504463D
:1012000090F82400002501280CD0012084F8240047
:1012100094F825600020012E06D084F824000225D1
:10122000284670BD022070BD022684F82560E06368
:101230002068066826F0010606602046FFF79EFB40
:10124000206B00282068016802D041F00E0106E002
:1012500021F0040101602068016841F00A01016089
:10126000A06C0168C90303D5016841F48071016075
:10127000606D18B1016841F48071016020680168F7
:1012800041F001010160CBE770B5044600F024FA9B
:101290000546601C02D004484068044400F01CFA73
:1012A000401BA042FAD370BD540600202DE9F05F28
:1012B000054633488946017801290CD0012680462D
:1012C00006704FF47A7B5846FFF710FC07004FF08A
:1012D000000A03D04FE00220BDE8F09F514640468F
:1012E000C8F804A0274C226892050AD52168490550
:1012F00005D5216821F480612160032109E006778A
:1013000008E02268520504D5216821F4806121603B
:10131000022101772868012807D04FF0FF31C9F872
:10132000001040F2FA3BAE681EE06868FFF77EFBF3
:101330005846FFF7DBFB0746606948F20401884323
:10134000606116E030466968FFF78CFB4FF47A70F5
:10135000FFF7CCFB0700606920EA0B00606102D058
:10136000C9F8006005E0761CD5E902010844B042E6
:10137000E8D8FFF72DFB88F800A03846ACE700005E
:101380006006002000200240054901204A6942F021
:1013900000424A614969002900DA002070470000D4
:1013A000002002402DE9F0471B4D044616462878E0
:1013B00098468A46012809D0012028704FF47A798E
:1013C0004846FFF793FB002718B119E00220BDE85B
:1013D000F0876F6024B1012C09D0022C07D00CE0FB
:1013E000324643465046FFF75DFB01240CE0314690
:1013F0005046FFF765FB022C04D04846FFF776FB0A
:101400002F70E4E74FF480244846FFF76FFB034951
:101410004A69A2434A61F3E76006002000200240C7
:10142000064900204A69002A07DA054A8A60054A07
:101430008A604969002900DA0120704700200240D3
:1014400023016745AB89EFCDB0F5805F03D002285B
:1014500004D102F051B90249092008607047000028
:1014600024080040044910B50A68024202D008600E
:10147000FFF7EAFF10BD0000140401402DE9F04F12
:10148000DFF82092002301260324A9F1040B85B084
:101490000F2709F1040AABF1040EFAE006FA03F58E
:1014A0002A407CD091F804C00CF0030CBCF1010F71
:1014B00002D0BCF1020F26D1D0F808C0CDF800C090
:1014C0004FEA430C04FA0CF8CDF810C0DDF800C068
:1014D0002CEA080CCDF800C0D1F80C80DDF810C063
:1014E00008FA0CF8DDF800C048EA0C08C0F80880DB
:1014F000D0F804C02CEA050C0D79C5F300159D4009
:1015000045EA0C0545600D79ED43AD070ED0C56881
:101510004FEA430804FA08FC25EA0C05D1F808C094
:101520000CFA08FC4CEA050CC0F80CC00D7905F06B
:101530000305022D16D1DD0800EB850CCDF808C09F
:10154000DCF820805D074FEAD56C07FA0CF528EA35
:1015500005080D6905FA0CF5DDF808C045EA08052F
:10156000CCF8205005684FEA430CCDF808C004FAC7
:101570000CFC25EA0C0591F804C00CF00308DDF81A
:1015800008C008FA0CF848EA0508C0F800804D6861
:1015900015F4403F7CD0444DD5F860C000E077E0C2
:1015A0004CF0010CC5F860C02D6E23F0030C05F063
:1015B000010500953D4D65440295AD684FEA837C79
:1015C0004FEA1C7807FA08FC25EA0C05B0F1904FA9
:1015D00006D0DFF8DCC0604505D14FF0010C20E0FB
:1015E0004FF0000C1DE0DFF8CCC0604502D14FF099
:1015F000020C16E0DFF8C0C0604502D14FF0030CCA
:101600000FE0DFF8B8C0604502D14FF0040C08E0ED
:10161000DFF8ACC0604502D14FF0050C01E04FF09F
:10162000060C0CFA08FC4CEA050C029DC5F808C033
:10163000D9F80050CC46D1F8048095435FEAC82819
:1016400000D51543CCF80050DAF80050D446D1F854
:10165000048095435FEA882800D51543CCF80050F4
:10166000DBF80050DC46D1F8048095435FEA883807
:1016700000D51543CCF80050DEF80050F446D1F800
:10168000048095435FEAC83800D51543CCF8005074
:101690005B1C0A6832FA03F57FF400AF05B0BDE8C1
:1016A000F08F0000080401400010024000000140DB
:1016B0000004004800080048000C004800100048E2
:1016C000001400480069084000D0012070470AB1AA
:1016D00081617047816270470148806870470000EF
:1016E0005406002070B5040011D021684CF6CC409F
:1016F0000860216845F255500860D4E90001416056
:101700002168A0688860FFF7E7FF05460DE001202B
:1017100070BD00BFFFF7E0FF401B312805D92068EE
:10172000C068400701D0032070BD2068C068400732
:10173000F0D120680269E1688A4201D0016102E0CB
:101740004AF6AA210160002070BD00684AF6AA216D
:10175000016000207047000002488168426811441F
:10176000816070475406002010B50024032000F06B
:1017700073F80F2000F008F808B1012401E000F030
:1017800025F8204610BD000070B50E4E0546002419
:10179000706898B14FF47A71B1FBF0F00A490968AA
:1017A000B1FBF0F001F003F940B9102D06D2002290
:1017B0002946501E00F030F8356000E00124204634
:1017C00070BD000054060020800600200A4882B048
:1017D000016E41F001010166016E01F0010100910D
:1017E000816D41F080518165806D00F080500090E6
:1017F00002B000F0A1B8000000100240002809DB90
:1018000000F01F02012191404009800000F1E0201A
:10181000C0F8001170470000F0B40E4B1B680C4676
:10182000C3F30223C3F10705042D00D90425191DB4
:10183000072901D2002300E0DB1E012606FA05F18C
:10184000491E214099409E40761E16403143F0BC0F
:1018500003F042BA0CED00E0064900F00702086808
:101860004FF6FF03184040EA0220034A1043086085
:10187000704700000CED00E00000FA052B492C4BEE
:101880000A6832214A432B4940B1B0F5007F08680D
:1018900029D020F4C06040F480602CE00868C0F3D8
:1018A0004120022804D051F8800F20F4807022E0FB
:1018B000D1F8800020F48070C1F88000086820F41E
:1018C000C06040F400700860B2FBF3F0401C00E020
:1018D000401E4A69520501D50028F9D148694005E2
:1018E0000AD503207047C0F34120022806D051F8E2
:1018F000800F40F48070086000207047D1F88000AD
:1019000040F48070C1F88000086820F4C06040F4A2
:1019100000700860B2FBF3F0401C00E0401E4A6912
:101920005205DBD50028F9D1D8E700008006002059
:1019300040420F00007000400248816841F480413D
:1019400081607047007000402DE9F843044600684C
:101950000026BB4D00035ED5A86D0027C00008D44B
:10196000A86D40F08050A865A86D012700F0805058
:101970000090DFF8D092D9F8001041F48071C9F8D6
:101980000010FFF7A9FE804606E000BFFFF7A4FEA7
:10199000A0EB080002282BD8D9F80000C005F5D527
:1019A000D5F8900010F4407014D0216D814211D010
:1019B000D5F89000D5F8901020F4407041F48031B3
:1019C000C5F89010D5F8901021F48031C5F890102A
:1019D000C5F89000C00711D0FFF77EFE804641F2A7
:1019E000883907E0FFF778FEA0EB0801494501D9E7
:1019F00003260BE0D5F890008007F3D5D5F89000CA
:101A0000216D20F440700843C5F890001FB1A86D07
:101A100020F08050A8652078C00707D0D5F888004E
:101A2000616820F003000843C5F88800207880072B
:101A300007D5D5F88800A16820F00C000843C5F848
:101A400088002078400707D5D5F88800E16820F0A5
:101A500030000843C5F888002078000707D5D5F87E
:101A60008800216920F0C0000843C5F8880020786C
:101A7000C00607D5D5F88800616920F44070084396
:101A8000C5F888002078800607D5D5F88800A169B8
:101A900020F440600843C5F888002078400607D548
:101AA000D5F88800E16920F440500843C5F8880063
:101AB0002078000607D5D5F88800216A20F4404038
:101AC0000843C5F888002088C00507D5D5F88800E8
:101AD000616A20F440300843C5F88800206880031C
:101AE00007D5D5F89C00A16A20F003000843C5F88B
:101AF0009C002088800507D5D5F88800E16A20F48D
:101B000040200843C5F88800208840050FD5D5F847
:101B10008800216B20F440100843C5F88800206B32
:101B2000B0F5801F03D1E86840F48010E860208899
:101B300000050FD5D5F88800616B20F440000843FC
:101B4000C5F88800606BB0F5800F03D1E86840F4F9
:101B50008010E8602088C0040FD5D5F88800A16BFC
:101B600020F040700843C5F88800A06BB0F1807F7A
:101B700003D1E86840F48010E86020884FF00061ED
:101B800080040ED5D5F88800E26B20F04060104349
:101B9000C5F88800E06B884203D1E86840F4801003
:101BA000E860208840040ED5D5F88800226C20F02B
:101BB00040601043C5F88800206C884203D1E86873
:101BC00040F48010E860208800040FD5D5F8880024
:101BD000616C20F040500843C5F88800606CB0F19B
:101BE000805F03D1E86840F48030E8602068C0037B
:101BF0000FD5D5F88800A16C20F040400843C5F807
:101C00008800A06CB0F1804F03D1E86840F48030C8
:101C1000E860206840030FD5D5F89C00E16C20F403
:101C200040100843C5F89C00E06CB0F5001F03D1DC
:101C3000E86840F48010E8603046BDE8F8830000B2
:101C400000100240007000402DE9F0470E460500EC
:101C50004FF0000725D0DFF8AC81D8F8000000F085
:101C60000F00B0420CD2D8F8001021F00F01314320
:101C7000C8F80010D8F8000000F00F00B04210D1F2
:101C80002968614CC80741F2883A5AD06868DFF881
:101C90007C91032808D0022820682DD04005002818
:101CA0002CDB0120BDE8F08720688001F9D5E068D1
:101CB00000F00302E068C0F30310401C032A19D0AF
:101CC000534A00BFB2FBF0F0E268C2F30622504371
:101CD000E268C2F34162521C5200B0FBF2F0484588
:101CE00017D9A06810F0F00F0CD0880711D5A8689C
:101CF00040B10EE0474AE5E78003D0E700F0BCF8CA
:101D0000484506D9A06820F0F00040F08000A060AF
:101D10008027A068696820F003000843A060FFF7EF
:101D2000DBFC814606E000BFFFF7D6FCA0EB090113
:101D300051453AD8A068696800F00C00B0EB810FFB
:101D4000F2D12868810714D5400703D5A06840F474
:101D5000E060A0602878000705D5A06820F46050F6
:101D600040F4E060A060A068A96820F0F00008439B
:101D700004E0802F03D1A06820F0F000A060D8F824
:101D80000010404601F00F01B14216D9016821F060
:101D90000F0131430160FFF79FFC074607E000BFDA
:101DA000FFF79AFCC11B514501D903207AE7D8F807
:101DB000000000F00F00B042F2D12878400705D5AE
:101DC000A068E96820F4E0600843A0602878000774
:101DD00006D5A068296920F4605040EAC100A060DF
:101DE00000F04AF8A1680C4AC1F30311515C01F0FC
:101DF0001F01C8400949086009480068BDE8F0476C
:101E0000FFF7C2BC002002400010024000B4C4042E
:101E10000024F40000127A00CCC9000880060020DB
:101E2000540600200148006870470000800600202A
:101E30000548064900688968054AC1F30221515CDA
:101E400001F01F01C84070478006002000100240CA
:101E5000DCC900080548064900688968054AC1F3DD
:101E6000C221515C01F01F01C8407047800600206C
:101E700000100240DCC90008184910B58868C0F39A
:101E800081021748012A0BD08A684310C2F38102ED
:101E9000022A06D08A68C2F38102032A03D00020F6
:101EA00010BD184610BDCA6802F00304CA68C2F328
:101EB0000312521C032C02D0B0FBF2F001E0B3FB82
:101EC000F2F0CA68C968C2F306225043C1F3416107
:101ED000491C4900B0FBF1F010BD000000100240A9
:101EE0000024F4002DE9F84304007AD02078FA4D5C
:101EF000C00747D0A868E96800F00C0001F00301B2
:101F00000C2802D0082817D001E0032914D06068FB
:101F1000B0F5803F17D0B0F5A02F286817D020F477
:101F200080302860286820F4802028606068E0B154
:101F3000FFF7D2FB064614E02868800322D56068CC
:101F40000028D2D01EE0286840F48030EDE740F44D
:101F500080202860F7E700BFFFF7BEFB801B6428E6
:101F600070D828688003F7D50CE0FFF7B5FB06466C
:101F700005E000BFFFF7B0FB801B6428F0D828689D
:101F80008003F7D4207880074CD5A868E96800F072
:101F90000C0001F003010C2802D004280DD001E050
:101FA00002290AD0E068002828682BD040F480700D
:101FB0002860FFF791FB064619E02868400502D526
:101FC000E068002891D06868217C20F0FE4040EA5B
:101FD00001606860C1480068FFF7D6FB002800D1A7
:101FE00020E076E1FFF778FB801B0228B8D828684C
:101FF0004005F7D56868217C20F0FE4040EA01608A
:1020000068600FE020F480702860FFF765FB0646EB
:1020100005E000BFFFF760FB801B0228A0D82868FE
:102020004005F7D42078000729D560690028D5F845
:10203000940013D040F00100C5F89400FFF74CFB6A
:10204000064606E090E000BFFFF746FB801B022833
:1020500086D8D5F894008007F6D510E020F001006E
:10206000C5F89400FFF738FB064604E0FFF734FBA1
:10207000801B022878D8D5F894008007F6D4207801
:10208000400761D5A86D0026C00008D4A86D40F0B7
:102090008050A865A86D012600F0805000909048FF
:1020A0000168C90511D40168804641F4807101605E
:1020B000FFF712FB074604E0FFF70EFBC01B0228E8
:1020C00052D8D8F80000C005F6D5A068012815D070
:1020D0000528D5F8900016D020F00100C5F8900032
:1020E000D5F8900020F00400C5F89000A06841F2F7
:1020F0008838B8B1FFF7F0FA07460EE0D5F890003F
:1021000040F00100F0E740F00400C5F89000F5E76A
:10211000FFF7E2FAC11B414526D8D5F890008007A9
:10212000F6D50CE0FFF7D8FA074604E0FFF7D4FA3B
:10213000C11B414518D8D5F890008007F6D41EB1D0
:10214000A86D20F08050A8652078800629D5A06968
:102150000028D5F8980013D040F00100C5F8980089
:10216000FFF7BAFA064606E077E000BFFFF7B4FAD9
:10217000801B022877D8D5F898008007F6D510E0A4
:1021800020F00100C5F89800FFF7A6FA064604E023
:10219000FFF7A2FA801B022865D8D5F898008007BF
:1021A000F6D4E069F0B3A968C1F38101032961D0D5
:1021B0000228286820F0807028600BD0E86820F0A2
:1021C0000300E860E86847490840E860FFF784FAE0
:1021D00004464BE0FFF780FA064604E0FFF77CFA7E
:1021E000801B02283FD828688001F7D4F4E9080151
:1021F0006FF00F0202EB01110843218A52044908D3
:1022000002EB4151A26841EA02210843217D4FF0CF
:102210007E42490802EB41610843217B40EAC160EC
:10222000E96800E062E0304A11400843E86028684D
:1022300040F080702860E86840F08070E860FFF748
:102240004BFA044605E000BFFFF746FA001B0228E0
:1022500009D828688001F7D548E004E0FFF73CFA88
:10226000001B022802D90320BDE8F88328688001FA
:10227000F4D43BE00128F7D0E868226A00F00301BB
:10228000914226D1616A00F0F002090110399142B1
:102290001FD1A26A00F4FE41B1EB022F19D194F8CC
:1022A0002C2000F07841B1EBC26F12D1218E00F4E6
:1022B000C00249084905A1F50011914209D194F8DD
:1022C000341000F0C06049084906A1F10071814254
:1022D0000CD00120C8E70000001002405406002086
:1022E00000700040FFFFEEFE0C809F010020BBE766
:1022F00070B5040009D0606A002540B125616561B0
:10230000A56294F85D0040B10CE0012070BD6068EA
:10231000B0F5827FF4D0E561F2E784F85C502046A6
:1023200000F05CF8022084F85D002068016821F06C
:1023300040010160E1684FF4E062914201D9002060
:1023400001E04FF48050B1F5706F02D0914200D09F
:10235000A562A188228901F4827102F4044211432A
:10236000227C02F002021143227D02F0010211439D
:10237000228B02F400721143227F02F038021143D3
:1023800094F8202002F080021143228D02F40052C2
:10239000114322681160A169042202EA114194F8F4
:1023A000242000F4805002F01002114394F83420ED
:1023B00002F008021143A28902F470621143014342
:1023C000206841602068C16921F40061C16125660F
:1023D000012084F85D00002070BD000010B586B0BB
:1023E000044614216846FEF712F812492068884214
:1023F0001ED11148016E41F480510166016E01F455
:1024000080510591C16C41F00101C164C06C694605
:1024100000F001000590E0200090022001900020D3
:1024200002900390052004904FF09040FFF726F8AB
:1024300006B010BD00300140001002402DE9F84FF9
:10244000044640680025984616460F464FF0040B98
:10245000B0F5827F01D1A06888B194F85C000128B2
:1024600018D0012084F85C00FFF736F9814694F813
:102470005D004FF0000A01280ED0022599E084F893
:102480005DB013460A462046CDF8008000F05EF9A4
:10249000BDE8F88F0220FBE7002F77D0002E75D023
:1024A00084F85DB0C4F860A02764A4F84460A4F880
:1024B0004660C4F838A0A4F83CA0A4F83EA0C4F834
:1024C0004CA0C4F850A0E0684FF4E0618842206856
:1024D000426802D922F4805201E042F48052426004
:1024E000A068B0F5004F09D12068026822F04002D0
:1024F00002602068026822F480420260206802685C
:10250000520603D4026842F040020260E06888424A
:102510001DD93FE020688168C9070BD0017B206C82
:102520000170206C401C2064B4F84600401EA4F8E2
:1025300046000CE0FFF7D0F8A0EB0901414503D3BA
:10254000B8F1FF3F03D03BE0B8F1000F38D0B4F84A
:1025500046000028DED121E020688168C9070BD041
:10256000C068216C0880206C801C2064B4F8460090
:10257000401EA4F846000DE0FFF7AEF8A0EB0901FD
:10258000414504D3B8F1FF3F04D019E010E0B8F1A1
:10259000000F15D0B4F846000028DDD14A46414668
:1025A000204601F005FB08B120202066206E00B116
:1025B0000125012084F85D0084F85CA0284667E7C7
:1025C0000325F6E72DE9F84F044690F85C00002754
:1025D0001D461646894601280DD04FF0010B84F8A0
:1025E0005CB0FFF779F8804694F85D00BA460128A0
:1025F00004D00227A4E00220BDE8F88FB9F1000F53
:1026000074D0002E72D0032084F85D00C4F860A05E
:10261000C4F83890A687E687C4F840A0A4F844A080
:10262000A4F846A0C4F850A0C4F84CA0A068B0F527
:10263000004F09D12068016821F040010160206845
:10264000016841F48041016020680168490603D4B3
:10265000016841F040010160E068B0F5E06F60683A
:1026600023D908B1012E1CD1A06B21680088C86055
:1026700006E020688168890709D5A16B0988C160D7
:10268000A06B801CA063E08F401EE08709E0FFF78D
:1026900023F8A0EB0800A84202D3681C01D046E052
:1026A000ADB3E08F0028E4D136E008B1012E30D17F
:1026B000E08F0128A06B03D921680088C8600FE073
:1026C00021680078087314E0E08722E020688168C0
:1026D000890714D5E18F0129A16B08D90988C16048
:1026E000A06B801CA063E08F801EEDE727E00978D7
:1026F0000173A06B401CA063E08F401EE4E7FEF76F
:10270000EBFFA0EB0800A84202D3681C01D00EE04A
:102710006DB1E08F0028D9D142462946204601F00C
:1027200081FA08B120202066A06810B105E00327D7
:1027300006E02068C16880680090206E00B1012723
:1027400084F85DB084F85CA0384655E72DE9F05F69
:10275000044690F85C0000270A9E1D4692468B4670
:102760004FF0010901280ED0012084F85C00FEF72B
:10277000B3FF804694F85D00616801280CD0B1F584
:10278000827F07D102E00220BDE8F09FA16809B96D
:10279000042801D0022700E1BBF1000F24D0BAF1D8
:1027A000000F21D005B394F85D00042802D0052065
:1027B00084F85D0000202066C4F840A0A4F84650CC
:1027C000A4F84450C4F838B0E587A587E0642065D4
:1027D000E0684FF4E061884201D8012D06D92068F5
:1027E000426822F4805205E00127D6E02068426862
:1027F00042F48052426020680268520603D40268A4
:1028000042F040020260E0688842606845D908B141
:10281000012D3AD1A06B21680088C860A06B801C94
:10282000A063E08F401EE0872FE020688168890761
:102830000FD5E18F69B1B9F1010F0AD1A16B0988F8
:10284000C160A06B801CA063E08F401EE0874FF04A
:10285000000920688168C9070FD0B4F8461061B13B
:10286000C068216C0880206C801C2064B4F846008D
:10287000401EA4F846004FF00109FEF72DFFA0EB23
:102880000800B04201D3701C75D1E08F0028CCD174
:10289000B4F846000028C8D176E008B1012D6CD10B
:1028A000E08F0128A06B08D921680088C860A06B60
:1028B000801CA063E08F801E07E021680078087309
:1028C000A06B401CA063E08F401EE08755E02068AD
:1028D000816889071AD5E18FC1B1B9F1010F15D10E
:1028E000E18F0129A16B07D90988C160A06B801C09
:1028F000A063E08F801E06E009780173A06B401C86
:10290000A063E08F401EE0874FF0000920688168D7
:10291000C90728D0B4F8461029B3B4F846100129E5
:1029200014D9C068216C0880206C801C2064B4F825
:102930004600801EA4F84600B4F84600012810D8CE
:102940002068416841F4805141600AE0007B216CBD
:102950000870206C401C2064B4F84600401EA4F8A7
:1029600046004FF00109FEF7B7FEA0EB0800B042A9
:1029700002D3701C01D018E0BEB1E08F0028A6D1B0
:10298000B4F846000028A2D142463146204601F064
:1029900049F910B1012720202066012084F85D004C
:1029A000002084F85C003846EEE60327F5E710B512
:1029B000401EB0F1807F01D3012010BD4FF0E02414
:1029C00060610F21601702F087F90020A0610720E5
:1029D0002061002010BD70477047704770477047F6
:1029E00070470000F0B590F83C20012A43D0012543
:1029F00080F83C50022280F83D2003685A689C68A9
:102A00001E4E1F4FDFF87CC0B34203D0BB4201D043
:102A1000634504D122F4700E4A6842EA0E02DFF8E0
:102A200068E002EA0E02D1F800E04EEA020EC3F8B6
:102A300004E00268B24212D0B2F1804F0FD0134BC3
:102A40009A420CD0124B9A4209D0124B9A4206D0AD
:102A5000BA4204D0104B9A4201D0624504D1896831
:102A600024F080031943916080F83D50002180F8E4
:102A70003C100846F0BD0220F0BD0000002C0140D3
:102A800000340140005001408FFFFFFD0004004072
:102A900000080040000C004000400140704710B5A5
:102AA000040003D094F83D0010B107E0012010BDF0
:102AB000002084F83C00204600F022F8022084F830
:102AC0003D00211D206801F009FA012084F848002A
:102AD00084F83E0084F83F0084F8400084F8410008
:102AE00084F8420084F8430084F8440084F84500E8
:102AF00084F8460084F8470084F83D00002010BDAB
:102B000008B501681948B1F1804F11D0184A9142B7
:102B100017D1816D41F002018165806D002200F0C6
:102B20000200009011461D20FEF776FE1D2019E0E0
:102B3000816D41F001018165806D00F00100009020
:102B400008BD0C4A9142FBD1816D41F004018165C1
:102B5000806D002200F00400009011461E20FEF758
:102B60005BFE1E20BDE80840FEF748BE0010024094
:102B7000000400400008004090F83D10012901D0F9
:102B800001207047022180F83D10006812498842F8
:102B900014D0B0F1804F11D0104988420ED01049A6
:102BA00088420BD00F49884208D00F49884205D08F
:102BB0000E49884202D00E49884207D181680D4AE9
:102BC0001140062906D0B1F5803F03D0016841F0DD
:102BD0000101016000207047002C0140000400400A
:102BE00000080040000C004000340140004001405B
:102BF000005001400700010090F83D10012901D06C
:102C000001207047022180F83D100168CA6842F037
:102C10000102CA6000681349884214D0B0F1804FA5
:102C200011D0114988420ED0104988420BD010496A
:102C3000884208D00F49884205D00F49884202D007
:102C40000E49884207D181680D4A1140062906D0F5
:102C5000B1F5803F03D0016841F00101016000201F
:102C600070470000002C01400004004000080040B4
:102C7000000C004000340140004001400050014081
:102C80000700010070B5044690F83C0000250128BB
:102C90001CD0012684F83C60022084F83D002268A4
:102CA0009068334B184020F47F4090600868B0F57E
:102CB000005F2ED016DC402849D009DCD0B11028A6
:102CC00018D0202816D0302849D113E0022070BD3A
:102CD00050282AD0602830D070280FD0B0F5805FFF
:102CE0003DD13DE010F00F0F39D10111A1F5803138
:102CF000072934D822680146104625E0CB68D1E97F
:102D00000121206801F054F92068816841F07701C1
:102D100009E0CB68D1E90121206801F049F9206878
:102D2000816841F4804181601AE0CA68496820687E
:102D300001F052F95021206806E0CA68496820680D
:102D400001F05BF96021206801F03CF908E0CA68F5
:102D50004968206801F040F940212068F4E7012526
:102D600084F83D60002084F83C00284670BD0000D7
:102D700088FFCEFF704770B50446006801694FF0C8
:102D80000005C943890715D4C168C943890711D40F
:102D9000E91E0161012020772068806980072046B4
:102DA00002D0FFF7E7FF04E000F0E3F8204600F070
:102DB000E1F8257720680169C943490717D4C1683C
:102DC000C943490713D46FF0040101610220207741
:102DD0002068806910F4407F204602D0FFF7CAFFC8
:102DE00004E000F0C6F8204600F0C4F8257720681B
:102DF0000169C943090716D4C168C943090712D438
:102E00006FF008010161042020772068C069800705
:102E1000204602D0FFF7AEFF04E000F0AAF82046FB
:102E200000F0A8F8257720680169C943C90617D4BE
:102E3000C168C943C90613D46FF0100101610820AD
:102E400020772068C06910F4407F204602D0FFF749
:102E500091FF04E000F08DF8204600F08BF8257714
:102E600020680169C943C90708D1C168C943C907B6
:102E700004D1891E0161204600F07DF820680169B7
:102E8000C943090609D4C168C943090605D46FF0CE
:102E9000800101612046FFF79FFD20680169C94359
:102EA000C90509D4C168C943090605D46FF4807106
:102EB00001612046FFF78FFD20680169C94349067B
:102EC00009D4C168C943490605D46FF040010161C6
:102ED000204600F051F820680169C943890609D4E9
:102EE000C168C943890605D46FF0200101612046FD
:102EF000FFF773FD20680169C943C90209D4C1689D
:102F0000C943C90205D46FF4801101612046FFF75F
:102F100066FD20680169C943890209D4C168C943B3
:102F2000890205D46FF4001101612046FFF756FDB8
:102F300020680169C943490209D4C168C9434902EB
:102F400005D46FF4800101612046FFF749FD206838
:102F50000169C94309020BD4C168C943090207D4F6
:102F60006FF4000101612046BDE87040FFF796BD97
:102F700070BD704770477047704790F88010012906
:102F800018D0012180F880102421C0F8841050F856
:102F9000641B0A680B6823F001030B6022F00051E8
:102FA0000022026050F8643C19602021016202771F
:102FB00010467047022070477047704770B504464E
:102FC00090F8800001281DD0012084F88000242082
:102FD000C4F8840020680568026822F001020260DB
:102FE0002068826822F060620A438260204601F015
:102FF00017F8206805602020C4F88400002084F8B9
:10300000800070BD022070BD70B5044690F880004D
:1030100001281DD0012084F880002420C4F88400F9
:1030200020680568026822F0010202602068826858
:1030300022F060420A438260204600F0F1FF2068DF
:1030400005602020C4F88400002084F8800070BD52
:10305000022070BD7047704770B50446216851E882
:10306000000F20F4F07041E80002002AF6D1384A3F
:103070002068083050E8001F114040E80013002B82
:10308000F6D1E06E012808D1216851E8000F20F048
:10309000100041E80002002AF6D1206880684FF055
:1030A000100600064FF0000515D52068083050E8DE
:1030B000001F21F0800140E80012002AF5D1A06F26
:1030C00048B18563A06FFDF769FF20B1A06FFDF7E0
:1030D000D6FF202825D020688068400615D52068B6
:1030E000083050E8001F21F0400140E80012002A9B
:1030F000F5D1E06F48B18563E06FFDF74FFF20B178
:10310000E06FFDF7BCFF20280BD0A4F85650A4F8C0
:103110005E5021680F200862606EB0F1005F04D03D
:1031200008E0C4F88C60032070BD2068816941F01C
:103130001001816154F8840B816941F008018161BB
:10314000202044F87409A067E565E567002070BD9C
:10315000FEFF7FEF7047014651F8840F496808432E
:10316000704700002DE9F04103680446D8691968EA
:103170009A6840F60F0528424FF0000509D18606EF
:103180007ED501F0200602F080573E4378D0216FB3
:1031900027E1A94EA94F16400F40374370D0C7070B
:1031A00009D0CF0507D501271F62D4F88C3043F032
:1031B0000103C4F88C3083070AD5D30708D02768E9
:1031C00002233B62D4F88C3043F00403C4F88C3003
:1031D00043070AD5D30708D0276804233B62D4F8F5
:1031E0008C3043F00203C4F88C3003070CD501F097
:1031F0002003334308D0266808233362D4F88C3088
:1032000043F00803C4F88C3003050BD54B0109D5F6
:1032100026684FF400633362D4F88C3043F0200307
:10322000C4F88C30D4F88C30002B3AD0800609D505
:1032300001F0200002F08051084303D0216F09B152
:1032400020468847D4F88C0021688968490602D452
:1032500010F0280F27D0204600F0A2FF20688068D9
:1032600040061BD52068083050E8001F21F04001BF
:1032700040E80012002AF5D1E06F78B1704900E013
:1032800017E08163E06FFDF7BEFE002809D0E06F14
:10329000816B00E02046BDE8F04108472046FFF77B
:1032A00059FFBDE8F0812046FFF754FFC4F88C5069
:1032B000F7E7E76E2026012F7ED1C7067CD5CF0623
:1032C0007AD51020186220688068400642D5E16FE8
:1032D000086840680004000CE3D0B4F85C20824227
:1032E000DFD9A4F85E000868006880062BD4206847
:1032F00050E8001F21F4807140E80012002AF6D146
:103300002068083050E8001F21F0010140E8001259
:10331000002AF5D12068083050E8001F21F0400154
:1033200040E80012002AF5D1C4F88860E5662168FB
:1033300051E8000F20F0100041E80002002AF6D109
:10334000E06FFDF72BFEB4F85C00B4F85E10401A95
:1033500081B22CE0B4F85C00B4F85E10401A81B27F
:10336000B4F85E0000289CD000299AD0226852E868
:10337000000F20F4907042E80003002BF6D12E4B92
:10338000DB432068083050E8002F1A4040E800274F
:10339000002FF6D1C4F88860E5662567226852E8F8
:1033A000000F20F0100042E80003002BF6D1204669
:1033B000FFF702FE75E7FFE7C70209D5570207D5F9
:1033C0004FF4801018622046BDE8F041FFF743BE7D
:1033D00003060AD501F0800302F40002134304D06F
:1033E000616F00297FF456AF5BE7420611D54A06AC
:1033F0000FD52046016851E8002F22F0400241E835
:103400000023002BF6D1C0F88460456700F072F904
:1034100047E7020206D54A0004D52046BDE8F04140
:10342000FFF718BEC001C5D50029C3DA2046BDE8A4
:10343000F041FFF7C2BD00000100001020010004B0
:103440008D41000810B5040003D0D4F8840010B1F9
:1034500007E0012010BD002084F88000204600F025
:1034600027F82420C4F884002068016821F00101B5
:103470000160204601F0D6F80128EBD0A06A10B117
:10348000204600F0EFFD2068416821F49041416042
:103490002068816821F02A0181602068016841F07C
:1034A000010101602046BDE8104000F03FBE000071
:1034B000F0B59BB00446142115A8FCF7A8FF5421D1
:1034C0006846FCF7A4FF31492068314C07270025E6
:1034D0000226884229D10120CDE900056846FEF781
:1034E00033FA08B1FDF771FA206E40F4804020668F
:1034F000206E00F480401A90E06C40F00400E0641C
:10350000E06CCDE9166500F004001A903020CDE99A
:103510001857159015A91F48FDF7B0FF0022114656
:103520002520FEF779F925202BE01B4988422AD176
:10353000684600960295FEF707FA08B1FDF745FACE
:10354000A06D40F40030A065A06D00F400301A902A
:10355000E06C40F00100E064E06CCDE9166500F03D
:1035600001001A900C20CDE91857159015A94FF0BD
:103570009040FDF783FF002211462620FEF74CF90C
:103580002620FEF73BF91BB0F0BD000000380140DB
:1035900000100240000800480044004030B4D0F859
:1035A0008830202B20D1E1B1DAB190F88030012BA6
:1035B0001AD0012380F880300023C3660B4C0368C7
:1035C000A3420BD05B681B0208D5046854E8003F97
:1035D00043F0806344E80035002DF6D130BC01F0A3
:1035E0006DB9012030BC70470220FBE7008000402D
:1035F00010B504460E48844209D1FFF72DFD632221
:103600000C490B48FFF7CAFF08B172B6FEE708483D
:10361000903084420BD1FFF71FFD0649632201F56C
:103620003070FFF7BBFF002801D072B6FEE710BD77
:10363000EC610020BC5F00202DE9F8430446D0F87F
:1036400084001F4616460D46202851D1DDB1D6B163
:1036500094F8800001284BD0012084F880004FF0BE
:103660000008C4F88C802120C4F884001834FEF7C8
:1036700033F8A6878146E68754F8100C183CB0F55D
:10368000805F03D004E00120BDE8F883206920B109
:103690002E46002584F8808010E00026FAE780217D
:1036A000204601F097F9B8B9C6B116F8010B2168A8
:1036B0008862B4F85600401EA4F85600B4F85600CC
:1036C0004B464FF0000200970028E8D14FF0400130
:1036D000204601F07FF930B10320D5E735F8020B21
:1036E000C0F30800E3E72020C4F884000020CBE703
:1036F0000220C9E77047FEE705480168642041439E
:103700000448064A41600449096811440161704750
:1037100024080040DC00002040060020807EAA83B0
:103720002DE9F04387B014216846FCF770FE374856
:10373000C16C41F02001C164C16C01F02001059110
:10374000C16C41F00101C164C16C01F0010105913E
:10375000C16C41F00401C164C16C01F00401059128
:10376000C16C41F00201C164C06C4FF0904900F09F
:1037700002000590002201214846FDF7A8FFDFF86E
:10378000908041F20507002239464046FDF79FFF31
:10379000012400250094CDE901456946484603957A
:1037A000FDF76CFE02260096CDE9015469464846B5
:1037B000FDF764FE0097CDE9014569464046039553
:1037C000FDF75CFE4FF404150096CDE901546946FF
:1037D0004046FDF753FE2003CDE9000569460294FB
:1037E0004846FDF74BFE002211460720FEF714F86D
:1037F0000720FEF703F8002211462820FEF70CF8F8
:103800002820FDF7FBFF07B0BDE8F0830010024061
:1038100000040048114810B50F4901604FF482714F
:10382000416000214FF4E062C0E90212022202610D
:1038300001224261520282611022C0E9072107225F
:103840004162C0E90A1201634163FEF751FD00289D
:1038500001D072B6FEE710BD00300140A460002028
:1038600010B588B000241748009401940294039482
:10387000049405944FF080410694C0E9001440F28E
:10388000E141C0E9024104618461FFF708F908B130
:1038900072B6FEE74FF48050009069460948FFF782
:1038A000F1F908B172B6FEE72020049004A906944D
:1038B0000448FFF797F8002801D072B6FEE708B079
:1038C00010BD00000861002010B588B00024174822
:1038D000009401940294039404940594124906946C
:1038E00001609F21C0E901144FF47A71C0E903140B
:1038F0008461FFF7D4F808B172B6FEE74FF4805048
:10390000009069460948FFF7BDF908B172B6FEE7B5
:10391000049404A905480694FFF764F8002801D030
:1039200072B6FEE708B010BD0004004054610020EC
:1039300010B588B0002418480094019402940394B0
:103940000494059413490694016043F67F61C0E92D
:10395000011442F21071C0E903148461FFF79FF86B
:1039600008B172B6FEE74FF48050009069460A48ED
:10397000FFF788F908B172B6FEE7049404A9064877
:103980000694FFF72FF8002801D072B6FEE708B0C2
:1039900010BD000000080040A0610020174810B5CD
:1039A000154901604FF416514160002181600C22DD
:1039B000C160C0E904128161C1610162416281623A
:1039C000FFF740FD08B172B6FEE700210B48FFF794
:1039D0001BFB08B172B6FEE700210848FFF7EEFABC
:1039E00008B172B6FEE70548FFF7C7FA002801D014
:1039F00072B6FEE710BD000000380140EC61002007
:103A0000174810B5154901604FF4E13141600021BC
:103A100081600C22C160C0E904128161C161016250
:103A200041628162FFF70EFD08B172B6FEE7002128
:103A30000B48FFF7E9FA08B172B6FEE70021084823
:103A4000FFF7BCFA08B172B6FEE70548FFF795FA32
:103A5000002801D072B6FEE710BD0000004400400F
:103A60007C620020FEE7FEE72DE9F04107462DEDE0
:103A7000028B4FF4427084B0002600EB471001F037
:103A800039F800285ED0222875D1384602F056F861
:103A9000024638286FD102A8009001AB374938465A
:103AA00003F004FF002861DD344D354C303DA86D36
:103AB000A861E86DE861206901BA21612962884640
:103AC00061680020491CFCF797FD9FED2E8B53EC9D
:103AD000182BFCF71FFDFCF7A3FD00BA60606862BD
:103AE000C5F810806861294829490068084400BA6F
:103AF000A060A86227480168642041430020491C57
:103B0000FCF77AFD53EC182BFCF704FDFCF788FD5D
:103B100000BAE060C5F82C00BDF808001749009015
:103B200001AB30223039384604F0ACF900281DDBF7
:103B3000304486B2302EEFD105F074F82068401C76
:103B4000206018E00024032600237B22022138464F
:103B500004F044FB0546B84205D00A20641CFDF77A
:103B600093FBB442F0DBB44205D1284604B0BDEC6F
:103B7000028BBDE8F0810120F8E70000C4060020B8
:103B8000DC0000208DEDB5A0F7C6B03E4006002059
:103B9000807EAA83240800400FB4002010B502A93B
:103BA00001F0ECFC03F06AFD10BC5DF814FB7047FB
:103BB0002DE9F843044640684FF48276154689465D
:103BC0004FF400474FF48068B04209D1A068B84272
:103BD00001D0404504D12068016821F04001016016
:103BE0004B46002280212046009500F0AFF880B9B6
:103BF0006068B04214D1A068B84201D040450FD1EE
:103C00004B4600224FF4C0612046009500F02EF88C
:103C100030B1206E40F0200020660320BDE8F8831C
:103C20000020FBE7F8B515460E460B460092044609
:103C300000224FF4C05100F019F888B93346002231
:103C400080212046009500F081F848B933460022D3
:103C50004FF4C0612046009500F008F8002804D019
:103C6000206E40F0200020660320F8BD2DE9FE4FB5
:103C70004FF0000A984617460E4604460C9D8DF8F4
:103C800004A0FDF729FD411BA8EB0105FDF724FD6C
:103C9000814620684FF4C06B0C3002902A480068BF
:103CA000C0EBC00000EB8000000D6843009043E0D3
:103CB0005E4506D12FB9029800788DF804009DF872
:103CC0000400B8F1FF3F37D0FDF706FDA0EB090077
:103CD000A84203D215B1009858B32BE02068416880
:103CE00021F0E00141606068B0F5827F0BD1A068EF
:103CF000B0F5004F02D0B0F5806F04D120680168A4
:103D000021F040010160A06AB0F5005F09D1206890
:103D1000016821F4005101602068016841F40051FC
:103D20000160012084F85D0084F85CA00320BDE8F8
:103D3000FE8F0025401E0090206880683040B84209
:103D4000B6D10020F3E70000800600202DE9F843FB
:103D50001E46914688460446089DFDF7BDFC401B63
:103D6000351AFDF7B9FC074625480068C0F3CB308B
:103D7000684338E0701C37D0FDF7AEFCC01BA8428A
:103D800003D215B1009860B32CE02068416821F09F
:103D9000E00141606068B0F5827F0BD1A068B0F5AA
:103DA000004F02D0B0F5806F04D12068016821F087
:103DB00040010160A06AB0F5005F09D12068016888
:103DC00021F4005101602068016841F40051016054
:103DD000012084F85D00002084F85C000320BDE829
:103DE000F8830025401E00902068816838EA0100B1
:103DF00004D000214945BDD10020F0E70121F9E7B9
:103E0000800600207047FDF7A7BC10B594B038219C
:103E10006846FCF7FCFA14210EA8FCF7F8FA00201B
:103E2000FDF72CFD0920009001214FF48030032480
:103E30000190CDE90841022005912821CDE90A1021
:103E400007900C900D906846FEF74CF808B172B6DA
:103E5000FEE70F20CDE90E04002010901190129083
:103E600004210EA8FDF7F0FE002801D072B6FEE78F
:103E700014B010BD0248016841F470010160704740
:103E800088ED00E00B484168491C41608168491C8D
:103E90008160094A1188491C11800178012901D9E2
:103EA000491E01704178012901D9491E417003481A
:103EB000FEF761BF480600200A0000205461002080
:103EC00010B50448FEF757FF03480168491C01601C
:103ED00010BD0000A0610020400600202DE9F04F39
:103EE00002682A4B2A4E2B4FDFF8ACC02B4C2C4DCE
:103EF0004FF0804B98420BD0584509D0B04207D0C4
:103F0000B84205D0604503D0A04201D0A84204D1F8
:103F100022F070084A6842EA0802DFF88880DFF879
:103F20008890DFF888A0984211D058450FD0B04251
:103F30000DD0B8420BD0604509D0A04207D0404513
:103F400005D0484503D0504501D0A84203D122F402
:103F50004076CA6832434E6922F0800232430260E2
:103F60008A68C2620A688262984209D0A04207D079
:103F7000404505D0484503D0504501D0A84201D165
:103F80000969016301214161BDE8F08F002C014006
:103F90000004004000080040000C004000340140D4
:103FA00000500140004001400044014000480140F1
:103FB00010B5846842EA032224F47F440A43224372
:103FC000826010BD8268034B1A400A4342F0070129
:103FD000816070478FFFCFFF10B5036A046A24F039
:103FE00001040462846924F0F00444EA021423F01A
:103FF0000A020A438461026210BD10B5036A23F00D
:10400000100303628369046A23F4704343EA0232B3
:1040100024F0A00343EA01118261016210BD000097
:1040200030B5416EB9B1026891689268C1F34261DE
:104030000B4B520F9C5CE50003F10804A25CB5FB3E
:10404000F2F2A0F86A205A5C615CD200B2FBF1F196
:10405000A0F8681030BD0121A0F86A10F8E7000050
:10406000BCC9000890F82810C90706D001684A6842
:10407000C36A22F400321A434A6090F82810890774
:1040800006D501684A68036B22F480321A434A60FD
:1040900090F82810490706D501684A68436B22F456
:1040A00080221A434A6090F82810090706D5016853
:1040B0004A68836B22F400421A434A6090F8281041
:1040C000C90606D501688A68C36B22F480521A4378
:1040D0008A6090F82810890606D501688A68036C02
:1040E00022F400521A438A6090F82810490611D52C
:1040F00001684A68436C22F480121A434A60416C9A
:10410000B1F5801F06D101684A68836C22F4C002B1
:104110001A434A6090F82810090606D501684A68D3
:10412000C06C22F4002202434A607047F8B50026B2
:104130000446C0F88C60FDF7CFFA05462068006899
:104140006FF07E47000708D52B4600224FF4001180
:104150002046009700F03EFC60B9206800684007E8
:104160000AD52B4600224FF480012046009700F02C
:1041700031FC08B10320F8BD2020C4F88400C4F845
:10418000880044F86C6F00202675F8BD10B5806A71
:104190000021A0F85E10A0F85610FEF7DBFF10BD5E
:1041A00010B5026852E8001F21F4907142E8001334
:1041B000002BF6D10E4B0268083252E8001F19405E
:1041C00042E80014002CF6D1C16E012908D1016823
:1041D00051E8002F22F0100241E80023002BF6D115
:1041E0002021C0F888100021C166016710BD0000C1
:1041F000FEFFFFEF10B5B0F86020D0F888300168FE
:10420000222B04D0886940F00800886110BD496AFB
:10421000836D11401980816D891C8165B0F85E1035
:10422000491EA0F85E10B0F85E100029EED10268B9
:1042300052E8001F21F4907142E80013002BF6D1E0
:104240000168083151E8002F22F0010241E8002303
:10425000002BF5D12021C0F8881000210167C26E23
:10426000012A02D0FFF7C4F910BDC166026852E806
:10427000001F21F0100142E80013002BF6D1016865
:10428000CA69D243D20601D410220A62B0F85C1087
:10429000FEF792FE10BD00002DE9F0470446B0F88D
:1042A00060600068C569D0F800A0D0F80880D4F834
:1042B0008810222905D0816941F008018161BDE89B
:1042C000F087B4F868704FF0000963E02068406A36
:1042D000A16D30400880A06D801CA065B4F85E0020
:1042E000401EA4F85E002068C569690730D0E90760
:1042F0000AD05FEACA5107D501210162D4F88C00C7
:1043000040F00100C4F88C00A8070BD55FEAC87024
:1043100008D0216802200862D4F88C0040F0040024
:10432000C4F88C0068070BD55FEAC87008D0216814
:1043300004200862D4F88C0040F00200C4F88C001D
:10434000D4F88C0020B12046FEF704FFC4F88C900E
:10435000B4F85E00F0B9216851E8000F20F48070D5
:1043600041E80002002AF6D1264A2068083050E8C9
:10437000001F114040E80013002BF6D12020C4F8A4
:104380008800C4F87090E16E4846012923D0204689
:10439000FFF72EF90FB1A80698D4B4F85E000028F4
:1043A0008DD0B4F86810814289D92068083050E86F
:1043B000001F21F0805140E80012002AF5D1124878
:1043C0002067206850E8001F41F0200140E80012FB
:1043D000002AF6D173E7E066216851E8000F20F06B
:1043E000100041E80002002AF6D12068C169C943E3
:1043F000C90601D410210162B4F85C102046FEF712
:10440000DBFDC7E7FEFFFFEFF541000810B5B0F890
:104410006020D0F888300168222B04D0886940F0F1
:104420000800886110BD496A1140826D1170816D6C
:10443000491C8165B0F85E10491EA0F85E10B0F806
:104440005E100029EED1026852E8001F21F490713D
:1044500042E80013002BF6D10168083151E8002F23
:1044600022F0010241E80023002BF5D12021C0F801
:10447000881000210167C26E012A02D0FFF7B8F848
:1044800010BDC166026852E8001F21F0100142E829
:104490000013002BF6D10168CA69D243D20601D4B9
:1044A00010220A62B0F85C10FEF786FD10BD000015
:1044B0002DE9F0470446B0F860600068C569D0F89F
:1044C00000A0D0F80880D4F88810222905D081698E
:1044D00041F008018161BDE8F087B4F868704FF0E1
:1044E000000963E02068406AA16D30400870A06D4B
:1044F000401CA065B4F85E00401EA4F85E00206871
:10450000C569690730D0E9070AD05FEACA5107D503
:1045100001210162D4F88C0040F00100C4F88C0045
:10452000A8070BD55FEAC87008D02168022008628E
:10453000D4F88C0040F00400C4F88C0068070BD558
:104540005FEAC87008D0216804200862D4F88C00A3
:1045500040F00200C4F88C00D4F88C0020B1204652
:10456000FEF7F8FDC4F88C90B4F85E00F0B921684D
:1045700051E8000F20F4807041E80002002AF6D1D3
:10458000264A2068083050E8001F114040E8001318
:10459000002BF6D12020C4F88800C4F87090E16E9A
:1045A0004846012923D02046FFF722F80FB1A8067C
:1045B00098D4B4F85E0000288DD0B4F86810814219
:1045C00089D92068083050E8001F21F0805140E868
:1045D0000012002AF5D112482067216851E8000F27
:1045E00040F0200041E80002002AF6D173E7E066BF
:1045F000216851E8000F20F0100041E80002002A75
:10460000F6D12068C169C943C90601D410210162ED
:10461000B4F85C102046FEF7CFFCC7E7FEFFFFEFC3
:104620000D4400082DE9F0410446016880682269C4
:10463000E3691043626900251A431043DFF84CC256
:104640000A68934B1A4002430A6020684168E26896
:1046500021F44051114341602168A069614501D0B6
:10466000226A10438A688B4B1A4002438A60206892
:10467000C16A626A21F00F011143C1628649236851
:1046800086488B420DD1D0F8880010F0030006D088
:10469000012867D0022854D0032851D164E00120BA
:1046A0004FE07F498B420BD1D0F8880010F00C000E
:1046B00047D0042845D0082852D00C2840D153E0D8
:1046C00078498B420BD1D0F8880010F0300038D0F8
:1046D000102847D0202843D0302831D144E07249F7
:1046E0008B420BD1D0F8880010F0C00029D04028B0
:1046F00038D0802834D0C02822D135E06B498B4295
:104700000ED1D0F8880010F440701AD0B0F5807F38
:1047100028D0B0F5007F23D0B0F5407F10D123E042
:1047200063450DD1D0F8880010F4406009D0B0F591
:10473000806F17D0B0F5006F12D0B0F5406F13D076
:1047400010205B4A5B4F00264FF40041634539D18E
:1047500060B102280DD004280DD0082831D10EE018
:104760000220EEE70420ECE70820EAE7FDF760FB13
:1047700003E0114603E0FDF77FFB01007BD0606A98
:1047800037F810206768B1FBF2F007EB470383426C
:1047900069D8B0EB073F66D8002308461946FBF7F7
:1047A00039FD090241EA10610202780810187141CE
:1047B0003A460023FBF72EFD3F4AA0F54071914297
:1047C00057D950E0E3694FF6EF788B422BD1092897
:1047D00049D2DFE800F005080D48254848480E009A
:1047E000FDF726FB01E0FDF735FB010001D142E0BA
:1047F0001146606A37F81000B1FBF0F041006068C4
:1048000001EB5001B1FBF0F1A1F1100040452AD8B5
:104810004FF6F07201EA0200C1F34201084328E0BA
:10482000FDF72AFBE1E709281DD2DFE800F00508C3
:104830000D1C1E1C1C1C0E00FDF7FAFA01E0FDF712
:1048400009FB010001D116E01146606A37F810003B
:10485000B1FBF0F1606801EB5001B1FBF0F0A0F1A9
:104860001001414504D9012505E0FDF705FBE8E706
:1048700080B22168C8600120A4F86A0024F8680F9B
:104880002846A660E660BDE8F08100000080004098
:10489000F369FFCFFFF4FF11003801400010024020
:1048A0000044004000480040004C004000500040E0
:1048B0000024F400A4C90008FFFC0F0070B5816556
:1048C000A0F85C20A0F85E200021016783684FF407
:1048D0008055FF24AB4204D10369FBB940F2FF13BA
:1048E00022E07F26C3B1B3F1805F1AD0A0F8601038
:1048F000C0F88C102223C0F888300368083353E8CE
:10490000004F44F0010443E80046002EF5D1436E09
:10491000B3F1005F0ED032E0036943B9A0F8604004
:10492000E6E703691BB13F23A0F86030E0E7A0F899
:104930006060DDE7B0F86830934220D88268AA4210
:1049400001D10269CAB11F4A026780F8801001696B
:1049500041B1026852E8001F41F4807142E800133F
:10496000002BF6D10168083151E8002F42F0805247
:1049700041E80023002BF5D121E0134AE4E78268E7
:10498000AA4201D102697AB1104A026780F8801008
:10499000016959B1026852E8001F41F4907142E880
:1049A0000013002BF6D10AE0094AEEE7026852E84C
:1049B000001F41F0200142E80013002BF6D1002037
:1049C00070BD0000B1440008994200080D44000881
:1049D000F54100082DE9F0479A4617460E46044671
:1049E0004FF000094FF02008089D4AE0681C48D0AD
:1049F000FCF772FEA0EB0A00A8422AD84DB320684B
:104A0000016849073DD5C069C043000539D4216814
:104A10004FF400600862206850E8001F21F4D07154
:104A200040E80012002AF6D12068083050E8001F44
:104A300021F0010140E80012002AF5D144F8848FEA
:104A4000C4F80480C4F8088004F8049C0320BDE87E
:104A5000F087216851E8000F20F4D07041E800028F
:104A6000002AF6D12068083050E8001F21F001012B
:104A700040E80012002AF5D144F8848FC4F804807D
:104A8000E2E72068C06936EA000004D00020B8429E
:104A9000ACD00020DBE70120F9E7000010B50648A4
:104AA000FEF760FB0448FEF756FB222802D10349BB
:104AB0003220087010BD0000EC6100204806002084
:104AC00010B50948FEF74EFB0748FEF744FB2228C5
:104AD00009D106492420002248700121BDE8104078
:104AE0004006FCF7F4BD10BD7C62002048060020A3
:104AF000FEE70000F8B5144C0546E06880476069A1
:104B00008047616AC5F30740C5F3072699B1A26AD9
:104B10008AB18DF800008DF801608DF802500321F4
:104B200068469047E06980470546A069804720694C
:104B300080472846F8BD216A8847216A3046884761
:104B4000216AE8B28847EDE7B00000202DE9F8437C
:104B50001A4C05461746E0688846804760698047DA
:104B6000616AC5F30740C5F30726A1B1A26A92B1F5
:104B70008DF800008DF801608DF802500321684621
:104B80009047626A394640469047A069804720694D
:104B90008047BDE8F883216A8847216A3046884704
:104BA000216AE8B28847002505E0E069804708F8F7
:104BB00005006D1CADB2BD42F7D3E6E7B0000020A2
:104BC000F8B5164C05460E46E06880476069804798
:104BD000A26A45F004058AB1280C8DF80000280A65
:104BE0008DF801008DF802508DF8036004216846AD
:104BF0009047A069804720698047F8BD216AC5F3C6
:104C000007408847216AC5F307208847216AE8B230
:104C10008847216A30468847EBE70000B000002053
:104C2000F8B51A4C05461646E0680F46804760699D
:104C30008047A26A45F004059AB1280C8DF800005F
:104C4000280A8DF801008DF802500321684690472C
:104C5000A26A314638469047A0698047206980475C
:104C6000F8BD216AC5F307408847216AC5F30720CC
:104C70008847216AE8B28847002504E0216A785D08
:104C800088476D1CADB2B542F8D3E5E7B00000200F
:104C90000FB4054B10B503A9044A029800F04EF872
:104CA00010BC5DF814FB0000115A000888060020B3
:104CB0000FB4084B10B504A902AA039800F03EF8FF
:104CC000044602A9002000F064FA204610BC5DF8FA
:104CD00014FB0000935100080907090E002804DBAB
:104CE00000F1E02080F80014704700F00F0000F1A0
:104CF000E02080F8141D7047BFF34F8F054801680E
:104D0000054A01F4E06111430160BFF34F8F00BF1A
:104D1000FDE700000CED00E00400FA0502E008C821
:104D2000121F08C1002AFAD170477047002001E025
:104D300001C1121F002AFBD1704700002DE9FF4F6F
:104D40008DB00F460546002606E025280BD0DDE98C
:104D50000F1290476D1C761C28780028F5D111B0F1
:104D60003046BDE8F08F0024A246A1460122E94961
:104D700000E0044315F8013F203B02FA03F008422B
:104D8000F7D128782A2810D06FF02F022878A0F1C8
:104D90003001092914D80AEB8A0102EB410144F0E1
:104DA000020400EB010A6D1CF0E701CF5FEA000A84
:104DB00003D544F40054CAF1000A44F002046D1C07
:104DC00028782E2817D115F8010F44F004042A285A
:104DD0000ED06FF02F022878A0F1300109290AD8EF
:104DE00009EB890102EB410100EB01096D1CF2E7BF
:104DF00057F8049B6D1C28786C280FD006DC4C28D3
:104E000017D068280DD06A2814D104E0742810D077
:104E10007A280FD10DE044F400140AE044F4801421
:104E200001E044F440146978814202D104F5801411
:104E30006D1C6D1C28786E281ED00CDC632830D0C9
:104E400004DC00288BD0582811D19FE0642867D05B
:104E500069280CD164E073282DD004DC6F2872D04F
:104E6000702804D194E075286ED078286DD0DDE9E3
:104E70000F129047761C4BE1C4F30250022806D073
:104E8000032809D0042801CF09D0066040E101CFF2
:104E9000F117C0E900613BE101CF068038E10670FF
:104EA00036E117F8040B8DF8000000208DF80100A2
:104EB000EB46012003E057F804BB4FF0FF306107D9
:104EC0004FF0000102D40DE008F101018846494588
:104ED0000FDA8045F8DB1BF808100029F4D108E050
:104EE00008F1010188468142FADB1BF8081000290D
:104EF000F6D1DDE90F23AAEB08008146214600F038
:104F000031F9304400EB080604E0DDE90F121BF82C
:104F1000010B9047B8F10108F7D221464846F2E06C
:104F20000A21C4F302524FF0000B0891022A04D068
:104F300001CFC117032A09D00AE0FF1D27F0070798
:104F4000F7E8020108E02CE01EE01FE000B2C11704
:104F5000042A01D140B2C117021E71F1000206DA23
:104F60000023D0EB030063EB01012D2202E02205B8
:104F700004D52B228DF82420012203E0E20701D082
:104F80002022F7E7904653E00A210BE0102109E0C8
:104F900010214FF0000B44F004044FF00809089171
:104FA00003E008214FF0000B0891C4F30252022ADB
:104FB00004D001CF0021032A06D006E0FF1D27F010
:104FC0000707F7E8020103E080B2042A00D1C0B26B
:104FD0004FF0000822072BD52A78702A07D0DDF879
:104FE00020C08CF0100C5CEA0B0C05D00EE04022C7
:104FF0008DF82420012208E050EA010306D0302376
:105000008DF824308DF8252002229046089B83F0ED
:10501000080353EA0B030BD150EA010201D16207E6
:1050200006D530228DF824204FF00108A9F101099E
:105030002A78582A04D038A20B9208AA0A920BE0C8
:105040003AA2F9E75B46089AFBF7E4F80B9B9B5CF6
:105050000A9A521E0A92137050EA0102F2D10A987B
:10506000ADEB000000F1200B600702D524F4803482
:1050700001E04FF00109D94502DDA9EB0B0000E08A
:10508000002000EB0B0141440890AAEB010AE00369
:1050900006D4DDE90F232146504600F063F80644AC
:1050A0004FF0000908E009A911F80900DDE90F1225
:1050B000904709F10109761CC145F4DBE0030CD5EA
:1050C000DDE90F232146504600F04CF8064404E089
:1050D000DDE90F1230209047761C0899481E089091
:1050E0000029F5DC08E00A980A990078491C0A9121
:1050F000DDE90F129047761CBBF10001ABF1010B0B
:10510000F1DC21465046DDE90F2300F019F8064492
:105110006D1C21E609280100303132333435363731
:1051200038396162636465660000000030313233F3
:105130003435363738394142434445460000000093
:105140002DE9F041044600251E461746880404D484
:1051500005E039462020B0476D1C641EF9D528466D
:10516000BDE8F0812DE9F041044600251E46904639
:10517000C80301D5302700E02027880404D505E0C6
:1051800041463846B0476D1C641EF9D52846BDE837
:10519000F0810A68531C0B601070704730B5C94924
:1051A000C94B00200978D960C84909781961C849F4
:1051B00009785961C74909789961C7490978D9615E
:1051C000C6490978196203F19C01A1F10C0208E0BB
:1051D0001C6AA40719D0145C5D6A2C445C62401CF4
:1051E000C0B2DC69641EA042F2D3586A99690844CF
:1051F00058625C69B448012100222C30282C06D367
:1052000001725C69283C5C6102E00C5CE4E70272BC
:105210005C69142C04D3C1715C69143C5C6100E0CE
:10522000C2715C690A2C04D381715C690A3C5C61BF
:1052300000E082715C69082C04D301715C69083C50
:105240005C6100E002715C69042C04D3C1705C698C
:10525000241F5C6100E0C2705C69022C04D3817081
:105260005C69A41E5C6100E082705C690CB14170F5
:1052700000E042701C69282C04D341741C69283C4E
:105280001C6100E042741C69142C04D301741C6975
:10529000143C1C6100E002741C690A2C04D3C17325
:1052A0001C690A3C1C6100E0C2731C69082C04D311
:1052B00041731C69083C1C6100E042731C69042CAA
:1052C00004D301731C69241F1C6100E002731C6974
:1052D000022C04D3C1721C69A41E1C6100E0C272BE
:1052E0001C690CB1817200E08272DC68142C04D35A
:1052F0008176DC68143CDC6000E08276DC680A2C95
:1053000004D34176DC680A3CDC6000E04276DC686D
:10531000082C04D3C175DC68083CDC6000E0C27571
:10532000DC68042C04D38175DC68241FDC6000E099
:105330008275DC68022C04D34175DC68A41EDC6035
:1053400000E04275DC680CB1017500E002751C6A72
:10535000502C05D380F83A101C6A503C1C6201E0C6
:1053600080F83A201C6A282C05D380F839101C6A72
:10537000283C1C6201E080F839201C6A142C05D3FB
:1053800080F838101C6A143C1C6201E080F8382058
:105390001C6A0A2C05D380F837101C6A0A3C1C6270
:1053A00001E080F837201C6A082C05D380F83510FE
:1053B0001C6A083C1C6201E080F835201C6A042C41
:1053C00005D380F834101C6A241F1C6201E080F8A9
:1053D00034201C6A022C05D380F833101C6AA41EEA
:1053E0001C6201E080F833201C6A14B180F832108E
:1053F00001E080F832205C6AC82C05D380F82910BF
:105400005C6AC83C5C6201E080F829205C6A642C1C
:1054100005D380F828105C6A643C5C6201E080F887
:1054200028205C6A502C05D380F826105C6A503C1A
:105430005C6201E080F826205C6A282C05D380F8A5
:1054400025105C6A283C5C6201E080F825205C6ADB
:10545000142C05D380F824105C6A143C5C6201E0D3
:1054600080F824205C6A0A2C05D380F823105C6A3B
:105470000A3C5C6201E080F823205C6A082C05D3BA
:1054800080F821105C6A083C5C6201E080F8212011
:105490005C6A042C05D380F820105C6A241F5C62CF
:1054A00001E080F820205C6A022C04D3C1775C6A9A
:1054B000A41E5C6200E0C2775B6A0BB1817730BDED
:1054C000827730BD3B060020000000203C06002013
:1054D0003D06002038060020390600203A0600204C
:1054E00038B5084C0020694660700F2000F06CF859
:1054F000401C05D09DF80000002801D001206070FC
:1055000038BD00000000002070B50446082802D90C
:105510004FF0FF3070BD4FF4847000EB441005462F
:105520001021FFF74DFB2846FFF7E4FA0028FAD1D7
:105530004FF4027000EB44101F21FFF741FB0D49AF
:105540000120A0404A8882434A808A8882438A8018
:105550000949002021F814000649891D08554FF417
:10556000427000EB44142046FFF7C4FA0028FAD139
:10557000012070BDF4000020FC06002010B50C4690
:1055800006281ED2DFE800F003070B10141820468F
:1055900003F002FA13E0204603F054F90FE02078FC
:1055A000BDE8104003F024BA03F078F9207006E05B
:1055B000204603F02FFA02E0204603F072F90020A3
:1055C00010BD4FF0FF3010BD2DE9F0410C46002119
:1055D00002464F1E08464FF498554FF4A056102A25
:1055E00063D2DFE802F0080B17131A1E222C36458F
:1055F000484C5950555C03F026FA4DE014B1204652
:1056000004F10801BDE8F04103F05FB9208803F020
:10561000D1F841E003F0F8F805E0208803F0AEF996
:105620003AE003F000F9208036E02088010A28469D
:10563000FFF7C6FA21783046FFF7C2FA2CE0304671
:10564000FFF758FA06462846FFF754FA06EB002003
:10565000E9E7174882782270C27862700279A270F6
:105660004279E27082792271C0796071A17113E090
:1056700003F075FA10E0204603F086FA0CE02046AD
:1056800003F02EFA08E02078BDE8F04103F0A1BA5B
:1056900003F058FA05E020700020BDE8F08103F027
:1056A00046FAC0B241B2491CF5D13846F5E70000D0
:1056B000B0000020054A1268054BDB68D21A0A23A5
:1056C000B2FBF3F20260042008707047500600201D
:1056D00004010020704770472DE9F0410E4E0D4641
:1056E0000746002404EB440000EBC40016F8301019
:1056F000A94207D106EBC0002A463946401CFAF7FA
:10570000D0FE30B1641C0E2CECDB4FF0FF30BDE856
:10571000F0812046FBE700001401002070B50D4623
:10572000044668A12846FAF789FE20B967A12846F1
:10573000FAF784FE08B1012005E066A12846FAF7D1
:105740007DFE10B10220207070BD64A12846FAF7DA
:1057500075FE20B963A12846FAF770FE08B1032050
:10576000F1E762A12846FAF769FE20B961A128464F
:10577000FAF764FE08B10420E5E760A12846FAF7CD
:105780005DFE08B10520DEE75EA12846FAF756FE69
:10579000082620B95DA12846FAF750FE08B1267008
:1057A00070BD5CA12846FAF749FE20B95BA12846E6
:1057B000FAF744FE08B10C20C5E75AA12846FAF7CB
:1057C0003DFE20B958A12846FAF738FE08B10B2053
:1057D000B9E74EA12846FAF731FE0028DFD149A1EA
:1057E0002846FAF72BFE0028D9D150A12846FAF70F
:1057F00025FE20B94FA12846FAF720FE08B109205E
:10580000A1E74EA12846FAF719FE20B94DA1284676
:10581000FAF714FE08B10A2095E74CA12846FAF7DA
:105820000DFE20B94BA12846FAF708FE08B10D205D
:1058300089E74AA12846FAF701FE20B949A128467E
:10584000FAF7FCFD08B10E207DE748A12846FAF7DB
:10585000F5FD20B947A12846FAF7F0FD08B114205C
:1058600071E746A12846FAF7E9FD20B945A1284687
:10587000FAF7E4FD08B1152065E744A12846FAF7D8
:10588000DDFD20B943A12846FAF7D8FD08B116205E
:1058900059E742A12846FAF7D1FD20B941A128468F
:1058A000FAF7CCFD08B117204DE740A12846FAF7DA
:1058B000C5FD28B93FA12846FAF7C0FD002887D0CA
:1058C000182040E72E68746D000000002E68746D8B
:1058D0006C0000002E676966000000002E74657879
:1058E000740000002E747874000000002E6A706549
:1058F000670000002E6A7067000000002E73776654
:10590000000000002E636769000000002E43474935
:10591000000000002E6A736F6E0000002E4A534F85
:105920004E0000002E6A73002E4A53002E786D6CD4
:10593000000000002E584D4C000000002E637373D1
:10594000000000002E435353000000002E706E67CD
:10595000000000002E504E47000000002E69636FCB
:10596000000000002E49434F000000002E747466B2
:10597000000000002E545446000000002E6F746694
:10598000000000002E4F5446000000002E776F6686
:10599000660000002E574F46460000002E656F74CB
:1059A000000000002E454F54000000002E73766763
:1059B000000000002E535647000000002DE9F0477C
:1059C00000259046894682462C460F4E0F4F09E02F
:1059D00004EB440056F820105046FAF754FD38B155
:1059E000641CA4B238888442F2D32846BDE8F0870C
:1059F00004EB440006EB800001254168C8F8001064
:105A0000A9F80040F1E70000BC210020E4050020D7
:105A100013B56423012269460248FDF70DFE009884
:105A20001CBD00007C6200202DE9F0411F46164697
:105A300088460E2803D36FF00300BDE8F08100EB29
:105A4000400101EBC001254800EBC10404F10E0147
:105A5000607B8D1C88F80000412826D006DC0228D7
:105A600023D0042809D0062804D106E042281CD0FF
:105A700043281AD06FF00400DFE7226D0AB12846F0
:105A8000904798F80000042803D12846FAF7F4FC60
:105A9000A073A07B3860002003E02118097C3154FA
:105AA000401C39688142F8DC15E0226D0AB12846B5
:105AB0009047A07B18B138600020216908E00420DD
:105AC000F9E7121AD200083A41FA02F23254401CA5
:105AD0003A688242F5DC0020AFE7000014010020A4
